:020000040800F2
:10000000C00B0020114D00080D4B00080F4B0008DD
:10001000114B0008134B0008154B000800000000AE
:10002000000000000000000000000000174B000866
:10003000194B0008000000001B4B00081D4B000876
:10004000294D00082D4D0008314D0008354D0008A0
:10005000394D00083D4D0008414D0008454D000850
:10006000494D00084D4D0008514D0008554D000800
:10007000594D00085D4D0008614D0008654D0008B0
:10008000694D00086D4D0008714D0008754D000860
:10009000794D00087D4D0008814D0008214B000876
:1000A000854D0008894D00088D4D0008914D0008D0
:1000B000954D0008994D00089D4D0008A14D000880
:1000C000A54D0008A94D0008AD4D0008B14D000830
:1000D000B54D0008B94D0008BD4D0008C14D0008E0
:1000E000414B0008C54D0008C94D0008CD4D000822
:1000F000D14D0008D54D0008D94D0008DD4D000850
:10010000E14D0008E54D0008E94D0008ED4D0008FF
:10011000F14D0008F54D0008F94D0008FD4D0008AF
:10012000014E0008054E0008094E00080D4E00085B
:10013000114E0008154E0008194E00081D4E00080B
:10014000214E0008254E0008294E00082D4E0008BB
:10015000314E0008354E0008394E00083D4E00086B
:10016000414E0008454E0008494E00084D4E00081B
:10017000514E0008554E000800000000000000002D
:10018000594E00085D4E00082DE9F14FB0B092467F
:1001900004910DF142013A9A2B9199464A70002040
:1001A0000AE01AF8011B0498309A9047002804903E
:1001B00000F06A860D98401C0D909AF8000050B12E
:1001C0002528EED1002100220791089209910A9278
:1001D0000B910C9204E00D9800F058BE41F0010123
:1001E0001AF8010F2028F9D023280CD02B2804D08E
:1001F0002D2805D0302809D00BE041F00201EFE7AF
:1002000041F00401ECE741F00801E9E741F0100199
:10021000E6E72A280FD1D9F8002052F8040BC9F8D4
:10022000002000280F9003D540420F9041F00401B8
:100230000AF1010A14E00F92DFF8583C0AE00F9827
:10024000984205DA00EB800402EB4402303A0F9248
:100250000AF1010A9AF80020A2F130000A28EED330
:100260009AF800002E2803D04FF0FF320E9229E0BA
:100270001AF8010F2A2809D1D9F8000050F8042BE8
:10028000C9F800000E920AF1010A1BE02D280CBFEC
:100290000AF1010A002000220E92DFF8F84B0BE071
:1002A00040B90E9AA24205DA02EB820503EB450340
:1002B000303B0E930AF1010A9AF80030A3F13002A4
:1002C0000A2AEDD3ADF840100FF6CC309AF80010A2
:1002D00000F006FF08B11AF8010B8DF842009DF8F6
:1002E0004200682805D19AF8000068280CD16221E4
:1002F00006E06C2804BF9AF800006C2804D1712134
:100300008DF842100AF1010A12A806901AF801BBF2
:10031000BBF125012CD01C3900F0D681091F022920
:1003200040F2D281133900F0E184093900F0CC8128
:10033000891E00F07685491E00F02385491E02299A
:1003400040F2C281091F00F01C85491F00F0318175
:10035000491E00F0CB84491E00F0D880C91E0DD084
:10036000891E00F0C384C91E00F0C08400F064BD83
:1003700025238DF84830012100F069BDD9F800002F
:1003800050F8044BC9F80000002C059440F0AB80F5
:100390002B994878002800F0A1804FF0FF340FF629
:1003A000003000F0ADFE201A40F06E8500F050BD28
:1003B00001236A4602A9304600F042FE002840F0C0
:1003C00063856D1EF4D13096079D12AF75B1309ED6
:1003D00017F8012B02A9304600F022FE002801D4B4
:1003E0006D1EF5D10028309640F04E850A9D3020D4
:1003F000002D8DF800000CDD309E01236A4602A915
:10040000304600F01DFE002840F03E856D1EF4D100
:100410003096059F089D75B1309E17F8012B02A9F3
:10042000304600F0FDFD002801D46D1EF5D10028F6
:10043000309640F029850B9D3020002D8DF800006E
:100440000CDD309E01236A4602A9304600F0F8FD1B
:10045000002840F019856D1EF4D130960598089952
:10046000099D471875B1309E17F8012B02A9304637
:1004700000F0D6FD002801D46D1EF5D1002830967D
:1004800040F002850C9D3020002D8DF800000CDD21
:10049000309E01236A4602A9304600F0D1FD0028B3
:1004A00040F0F2846D1EF4D130969DF84000410773
:1004B0007FF583AE2020002C8DF800007FF77DAE05
:1004C000309D01236A4602A9284600F0B9FD0028A4
:1004D00040F0DA84641EF4D130956EE60FF6C03039
:1004E000059000F0B5BC0E9D002D04D5204600F00F
:1004F00027FE044607E02A46204600F02BFE00288F
:1005000014BF041B2C46089400F0A2BCD9F80010BC
:1005100051F8040BC9F8001020F00004002121F06C
:10052000FF3512ABCDE902450593DDE902230699BB
:100530003C2413B90AB90E98A0B102F00F05641E4D
:1005400030353A2D08DA12090D5542EA03721B09BB
:1005500008BF002A02D105E02735F4E705980D19F8
:10056000A842EAD308190590C4F13C020E980892FB
:1005700082420ADABDF84010821A4FF6EF7001404D
:100580000A92ADF8401000F063BC002840F160848E
:100590009DF8400000F01400102840F059840F9B93
:1005A00007990A985B1A1B1A9A1A002A40F350847A
:1005B0009AE32B99487820B14FF0FF340FF6B02022
:1005C000EFE69DF84200622860D0682817D06A28BC
:1005D0003FD06C2806D0712847D074282CD07A28B8
:1005E0001DD062E0D9F8001051F8040BC9F80010D2
:1005F000002866D14FF0FF340FF68C20D1E6D9F8F1
:10060000001051F8040BC9F8001020B94FF0FF3466
:100610000FF67420C5E60D99018000F019BCD9F8D9
:10062000001051F8040BC9F80010002849D14FF010
:10063000FF340FF65420B4E6D9F8001051F8040B3B
:10064000C9F8001000283CD14FF0FF340FF63820D5
:10065000A7E6D9F8001051F8040BC9F8001080B9CA
:100660004FF0FF340FF620209BE6D9F8001051F828
:10067000040BC9F8001020B94FF0FF340FF6082022
:100680008FE60D9AD317C0E90023E1E3D9F80010F3
:1006900051F8040BC9F8001020B94FF0FF340FF6E1
:1006A000E8107EE60D990170D2E3D9F8001051F8F8
:1006B000040BC9F8001020B94FF0FF340FF6C81032
:1006C0006FE60D990160C3E3D9F80020D21D22F036
:1006D0000702C9F80020D2E900010832C9F8002059
:1006E000CDE90201C80F02D007982D210AE0BDF81C
:1006F0004000810702D507982B2103E0C00705D5EC
:100700000798202112AA1154401C079012A807999B
:10071000DDE9024543184BF020006128059321AE26
:100720000BD00E98002802D506200E9005E001BFE0
:100730004BF02000672801210E91DDE902014800FD
:100740004015401C0A460DD109030BD0ABF16107DF
:1007500003201A2F089002D20FF648110DE00FF671
:1007600048110AE070B912030CD1ABF16107032004
:100770001A2F08901CD30FF638110322184600F0E8
:1007800015FD65E3DDE902016A4600F01BFDCDE9D8
:1007900002014BF02000612811D105983021017031
:1007A000821C0592BBF1610F0CBF7821582102E039
:1007B0000FF6F801E1E741700798801C0790DDE92A
:1007C000020120F0000231F0004308BF002A02D1EC
:1007D0000025002445E14BF02008B8F1610F40F0FE
:1007E00095800E98002847BF21210191401C01905F
:1007F000019F7F1C2046294600220023DDE9024597
:1008000000F018FD38BF85F0004500998DF8842070
:10081000091F002F00910DF1850034DD06462046AA
:1008200029460022002300F01FFD2BD21C2200F0DD
:1008300035FD04460D4600F0CFFDFF1F002F80461A
:1008400009DD00F0E5FD02460B462046294600F092
:10085000A7FE04460D46F01D0721B8F1000F0CDD80
:10086000491E5EBF08F00F0200F8012D4FEA28185C
:10087000F3D502E0002200F8012D491EFAD5C61D6D
:10088000002FCCDC30460DF18501401A01990DF1A5
:10089000850605468842C8BF0D46002D2FD48542E7
:1008A00006DA0DF18500415D0829A8BF0F2000DAA6
:1008B0000020294621AA0A4400E06D1E12F80139E1
:1008C000491E8342F9D00F2804D10DF18500425C06
:1008D000521C4254002904D50098001D21AE6D1C05
:1008E0000090681E0BD431180A783032D3B23A2BFC
:1008F000A4BF5A443A3A401E01F80129F4D50E9893
:10090000002840F1AD80691E0E91A9E00099DFF842
:10091000002747F29750414391FBF2F2009225F0F5
:100920000045C2F10702002A04DD2046294600F0F6
:100930004BFB0BE052420020DFF8D81600F044FBDE
:1009400002460B462046294600F09CFE04460D4612
:10095000B8F1660F06BF009F0A3706270E983F18AA
:10096000142FC8BF142730208DF884000DF18500A6
:1009700000E03046002F35DD06462046294600F0CF
:10098000A5FF01460A4606F1080304200A26B2FB29
:10099000F6F606EB860EA2EB4E02303203F8012C7F
:1009A0000A22B6FBF2F202EB820EA6EB4E063036BE
:1009B000401E03F8026DE9D1083F002F03F108063D
:1009C000D7DD084600F094FF02460B462046294634
:1009D00000F0E6FD0022DFF8403600F097FF044605
:1009E0000D46CAE70DF18501401A0DF1850604E0B8
:1009F0000099491E401E0091761C31783029F7D0AD
:100A0000B8F1660F02D10099491C04E0B8F1650FF6
:100A10000CBF012100210E9D4D19A842B8BF451EF3
:100A2000002D1DD4854204DA705D3428C8BF3920FA
:100A300000DC30202946721E531800E06D1E13F8AA
:100A40000149491E8442F9D0392802D1705C401C0A
:100A50007054002904D50098401C16466D1C009067
:100A6000009C01F029F8406A0778DDF8388028B248
:100A7000002802DC01250FF23C664BF020006628BE
:100A800008BF641C16D0672846D120B210F1040FAD
:100A900048DB404546DA9DF84000641C010703D45A
:100AA00028B24045D8BF804620B2B8EB000848BF06
:100AB0004FF000080FFA84FBBBF1000F00F3B58084
:100AC0000898411C0891302205990A54B8F1000F8A
:100AD00003DC9DF84000010704D50898411C0891EB
:100AE00005990F5418EB0B0FB8BFC8F1000424B2DE
:100AF0006042A0442AB20B909045B8BF4546059B82
:100B000008982DB209952A463146184400F04EFB4C
:100B1000A8EB05000C90D2E0BBF1610F17D14FF0AC
:100B2000700B19E028B2404504DA9DF840100A071E
:100B300058BF8046B8F1010848BF4FF00008BBF12C
:100B4000670F14BF4FF0450B4FF0650B04E0BBF18E
:100B5000410F08BF4FF0500B0898411C0891B8F1A5
:100B6000000F059916F8012B0A5403DC9DF840008C
:100B700001071AD50898411C0891B8F1000F059992
:100B80000F5412DD6D1E28B28045B8BF454605984A
:100B9000089B2AB23146184400F008FB08992DB290
:100BA00069180891A8EB05000B900598089908446E
:100BB00021B2002980F800B003D42B224270821C9D
:100BC00004E02D2242700C46821C644200212CABB2
:100BD00020460AE004460A2094FBF0F000EB800572
:100BE000A4EB450403F8014B491C00B20028F1DCDA
:100BF000012906DC4BF02000652804BF302002F8F4
:100C0000010B00292CAB08D1302002F8010B06E0C3
:100C1000491E585C303002F8010B0029F8DC0599B8
:100C200008980844121A099249E028B221B2884271
:100C30001CDA0598089B2AB23146184400F0B6FA2F
:100C400008992DB269180891ABEB0500B8F1000FB7
:100C50000B9003DC9DF84000020704D5059847542B
:100C60000999491C0991CDF8308028E00598089B26
:100C700022B23146184400F099FA08982D1B5844C6
:100C8000B8F1000F089003DC9DF840100A0703D567
:100C9000411C089105990F5428B28045B8BF4546BC
:100CA0000598089B2AB206EB0B01184400F07EFA67
:100CB00008982DB228180890A8EB05000B909DF815
:100CC000400000F01400102840F0C280079A0899F4
:100CD0000B988A18099982180C988A1882180F980C
:100CE000824280F2B580821A0A92B1E09DF84200F9
:100CF000622808D068280ED06A2814D06C281FD02B
:100D0000712810D01CE0D9F8001051F8040BC9F874
:100D10000010C0B21AE0D9F8001051F8040BC9F85D
:100D2000001080B212E0D9F80020D21D22F0070294
:100D3000C9F80020D2E900010832C9F8002006E015
:100D4000D9F8001051F8040BC9F800100021CDE9C2
:100D500002019DF8400001075AD5DDE90223002B6E
:100D600008BF002A54D04BF02000782850D10798B3
:100D700012A930220A54401C431C079301F800B00A
:100D800046E09DF84200622808D068280ED06A2804
:100D900014D06C281FD0712810D01CE0D9F8001096
:100DA00051F8040BC9F8001040B21AE0D9F800104D
:100DB00051F8040BC9F8001000B212E0D9F8002075
:100DC000D21D22F00702C9F80020D2E90001083242
:100DD000C9F8002006E0D9F8001051F8040BC9F852
:100DE0000010C117CDE90201002902D507982D2175
:100DF0000AE0BDF84000810702D507982B2103E0E7
:100E0000C00705D50798202112AA1154401C07904D
:100E100012A807990144059102A8594600F04EF81E
:100E200016E001200790D9F8000050F8041BC9F81B
:100E300000008DF848100BE025210122BBF1000FC6
:100E40008DF84810079203D08DF849B00221079120
:100E50000F9A07980A990C9C121A0898521A0B9923
:100E6000121A0998521A121A9DF84000141B4107D1
:100E70003FF5AAAA2020002C8DF800007FF7A4AA35
:100E8000309E2546FFF794BA4FF0FF3031B0BDE8F1
:100E9000F08F0000CBCCCC0C686A6C747A4C0000EC
:100EA0007072696E74665F733A20626164202573A4
:100EB00020617267756D656E740000002DE9FC435A
:100EC00004466F29256908BF082605D041F0200097
:100ED000782814BF0A261026D4E900233C27904620
:100EE0009946642918BF692905D1002B03D5D8F18B
:100EF000000869EB4909B9F1000F08BFB8F1000F0C
:100F00000CD1206B50B9082E3AD194F83800010763
:100F100036D530203B2785F83B0031E08DF80010B6
:100F2000404649463246F31700F0CAFD3032D0B28F
:100F30007F1E3A2801970EDAEA5540464946324666
:100F4000F31700F0BDFD80465FEA010908BFB8F164
:100F5000000F05D108E09DF800001218513AEBE7A8
:100F6000E068E9198842DBD3082E09D194F83800EB
:100F7000010705D5E85D302802D07F1E3020E855F6
:100F8000C7F13C02A261E919E160206B824208DAF4
:100F9000821A22624FF6EF70218F01402187BDE84F
:100FA000F38300280ED594F8380000F014001028C0
:100FB00008D1636B6169206A5B1A1B1A9A1A002AAE
:100FC000C8BF2262BDE8F3832DE9D04306460F4631
:100FD00014464FF00008DFF8449012E0E00707D510
:100FE00042464B463046394600F090FC06460F46D6
:100FF0004046494642464B4600F088FC6410804615
:101000008946002CEAD130463946BDE8D08300003D
:10101000A08601000000F03F84D7974100002440E3
:1010200010B503460C461146A0689847A06020B151
:10103000E06A401CE062002010BD4FF0FF3010BDA0
:10104000F8B505460E4617461C4600205CB117F859
:10105000011BB068A847B06030B1F06A401CF06274
:101060000020641EF3D1F2BD4FF0FF30F2BD00004E
:101070007072696E74665F733A20256E20646973BE
:10108000616C6C6F776564007072696E74663A208B
:1010900062616420256E20617267756D656E7400F3
:1010A000000000006E616E004E414E00696E6600E9
:1010B000494E460030000EE00268436802440830A2
:1010C0005FEAC37C44BF4B445B1E52F804CB43F839
:1010D00004CB091FF9D150F8041B0029ECD170474B
:1010E000C9B202788A421AB11CBF10F8012FF9E781
:1010F00018BF002070470268531C036011707047CE
:1011000080B500B906A005490B681BB12222002159
:10111000984701E000F057FD222002BDB8070020EB
:10112000636F6E73747261696E742068616E646C53
:1011300065723A20626164206D6573736167650052
:1011400000F1010310F8011B11B110F8011BFBE7BE
:10115000C01A7047C9B2830706D0521E22D310F8B6
:10116000013B9942F7D11FE0083A13D302F1040280
:1011700041EA012141EA014150F8043B121F21BF1D
:101180004B40A3F1013C2CEA030C1CF0803FF3D050
:10119000C9B2001F083210F8013B521E28BF91EA65
:1011A000030FF8D818BF0120401E70474AB1000055
:1011B00011F8013B521E00F8013B1CBF11F8013B26
:1011C000F8E7704710B5144600F002F8226010BD31
:1011D000C1F30A5343B14A0012F5001F28D2A3F20B
:1011E000FE32A1EB0251704750EA410C20D001F0D1
:1011F000004C31EA0C01B1FA81F204BFB0FA80F37D
:10120000D2180B3AB2F120032CBF00FA03F191403F
:1012100041EA0C013EBFC2F1200C20FA0CF3194345
:101220009040524240F2FD33D21A01EB0351704715
:101230000022704741EA030C50EA4C0C52EA0C0CB5
:101240004FF4001C09D307D01CEB410F9CBF1CEBD3
:10125000430F8B4208BF824270471CEB430FFBD801
:10126000994208BF9042704741EA030C50EA4C0C87
:1012700052EA0C0C4FF4001C09D307D01CEB410FB1
:101280009CBF1CEB430F994208BF904270471CEB78
:10129000410FFBD88B4208BF82427047124254D4A0
:1012A00040F2FF7C1CEA11530FD0634531D09B18EC
:1012B00063453CBF01EB0251704701F0004141EA38
:1012C0000C510020AFF30080704750EA410320D05A
:1012D00001F0004C91EA0C011CD0B1FA81F30B3BF8
:1012E0009A420DD9D21A994051EA0C01C3F1200C4F
:1012F00020FA0CFC61449840531C40F2FF7CD7E775
:10130000914041EA0C01C2F1200C20FA0CF3194380
:1013100090407047B0FA80F31533202BE0D3202A99
:10132000EED3203A203B9A4209D9D21A00FA03F1AF
:1013300041EA0C010020531C40F2FF7CB8E700FAA0
:1013400002F141EA0C0100207047524240F2FF7C5A
:101350001CEA11530DD06345DBD0B2EB030C3CBF4C
:10136000A1EB025170470CF1010221EA035141F453
:10137000801150EA410CCCD001F0004C352A27DC1A
:1013800030B481EA0C01B2F1200309DAC2F1200382
:10139000044601FA03F5D0402843D1409C400CE0BC
:1013A000C3F12002450020FA03F418BF44F0010401
:1013B00021FA03F091400C43002174F1004550F1F3
:1013C000000051EB0C01244230BC7FF47BAF70472E
:1013D0006146002076E72E00C1F30A5340F21E4218
:1013E000D31A0CDDCA0283F3070342EA505242F0DB
:1013F0000042DA4002EBE17282EAE17070476FEA84
:10140000E17203F2E13008B182F000407047000061
:1014100010F0004160B148BF4042B0FA80F2904005
:10142000D21CC2F5846241EA025202EBD02140058F
:1014300070470000841A71EB030604D26E40001B53
:10144000B141121973414FF4001C1CEB410F34BF22
:101450007CEB430683E00C0DA4EB1356362E00F311
:101460007C80012E45EAC32341DC43EA525312BF7C
:10147000D20292025B08240545EAC12141EA50519B
:10148000D2EBC020994125D407D1B0FA80F610FAEA
:1014900006F162D00020203608E0B1FA81F6B140B2
:1014A000C6F1200220FA02F21143B0404FEAF47470
:1014B000B4EB465434F001064FEA74040AD8D6F56A
:1014C0000016760D04F00044F04061FA06F2504038
:1014D000F1404840C00A40EA415021F0004128BF95
:1014E0005FEA500550F1000044EBD12135E0DB0A02
:1014F00045EAC121C90AB6F120050EDD42EA0242E1
:10150000120CC5F1200603FA06F6EB4042EA060586
:101510006D42984161F100010DE062FA06F5F2407A
:10152000554063FA06FC82EA0C02F3405A406D42D1
:10153000904161EB030111F4801F05D1641E620527
:1015400002D06D004041494121F48011430875F1FA
:10155000004350F1000041EB045170BC70471CEB9C
:10156000410F15D223F0004352EA43060BD04FEA55
:101570004C0CBCEB410F04D80C0D661E342EB7DDAD
:10158000EBE7801A994150EA410608BF0021E4E7E1
:1015900008BF1CEB430F28BF6FF00001DDE7000020
:1015A00070B491EA030F4FF000457FF543AF6B40F5
:1015B000841A71EB030603D2001BB1411219734167
:1015C0004FF4001C1CEB410F34BF7CEB430442E0A2
:1015D0000C0DA4EB1356352E4FDC45EAC323DB0A72
:1015E00045EAC121C912B6F120050DDD63FA05F601
:1015F000EB4086EA0305124218BF45F00105C0180A
:1016000051F100010CD213E062FA06F5F2405540A8
:10161000F3415A40B340F3405A408018594107D330
:1016200049085FEA30005FEA350528BF45F001054B
:1016300001F58011420875F1004250F1000041EBC4
:1016400004514E0016F5001F70BC38BF70470020D3
:10165000090D090570471CEB410F10D252EA4306F1
:101660000BD0BCEB410F05D80C0DAB43661E342EDE
:10167000B6DD02E0AB438018594170BC704770BCC6
:1016800070470000F0B540F2FF7581EA030C0CF0E2
:10169000004C15EA11541DBF15EA1357AC42AF4276
:1016A000E5E0BC41C1F31301C3F31303801A994170
:1016B00043F4801304D2641E001849418018594134
:1016C000C90241EA5051B1FBF3F603FB1611A2FB2C
:1016D0000675D7EBC020A94102D2761E8018594169
:1016E000C90241EA5051B1FBF3FE03FB1E11A2FBFC
:1016F0000E75D7EBC020A94103D2AEF1010E8018C0
:101700005941890241EA9051760546EA8E2EB1FB95
:10171000F3F603FB1611A2FB0675D7EB8020A94157
:1017200002D2761E80185941C90241EA50514EEA50
:10173000060EB1FBF3F603FB1611A2FB0675D7EB01
:10174000C020A94102D2761E80185941C90241EA3F
:101750005051B1FBF3F703FB1711A2FB0735D3EB95
:10176000C020A94167F100070CBF004247F0010704
:1017700066F3D5274FEA1E31B80814F5806412DDF0
:10178000BD0775F1004250EB0E5051EB045111F5BD
:10179000801F5CBF41EA0C01F0BD4CF07F6141F05D
:1017A000E0410020F0BDBD076D0840EA0E5041F455
:1017B0008011D4F10104B4F120060ADAC4F1200644
:1017C0000200E04001FA06F3E1401843B24015433D
:1017D0000EE0342C13DCC6F1200445EA40056D0808
:1017E00020FA06F2154321FA06F0A1400D4300212C
:1017F00075F1004250F1000051EB0C01F0BD0020EA
:101800005FEA0C01F0BDCFB992185B41B3FA83F7E0
:1018100004BFB2FA82F6BF190B3FB7F120062FBF03
:1018200002FA06F3BB40C7F1200622FA06F638BFDB
:101830003343BA401CB1E419641E33E77F4231F0F0
:101840000041B1FA81F404BFB0FA80F6A4190B3C50
:10185000B4F120062FBF00FA06F1A140C4F1200622
:1018600020FA06F638BF3143A0403C1B1AE7AC42D1
:101870001ABF05EA1357AF4212E050EA41061CBFF7
:1018800052EA4306BFE750EA4107304661461CBFB3
:1018900041EA0551F0BD52EA430C08BFC143F0BD17
:1018A00000204FF4001616EB410F98BF16EB430FC4
:1018B00008BF16EB410F24BFC14305E016EB430FF1
:1018C0000CBF61464CEA0551F0BD0000400D40F2EE
:1018D0001E4C40EAC120BCEB115C40F0004003D438
:1018E0008CF30701C84070476FEAE1707047000051
:1018F00050B1B0FA80F18840C91CC1F58461090576
:1019000001EBD021400570470146704730B540F2E9
:10191000FF7C1CEA11541DBF1CEA13556445654544
:101920003FE0641981EA030C6FF35F530CF0004C45
:1019300043F48013C90241F0004141EA505EC50200
:101940001100A5FB020200284FF00000EEFB012071
:101950004FF00001E3FB052118BF42F001024018DF
:1019600000214941E3FB0E01A4F580640D0302D27E
:1019700092184041494154F1010470DD450872F16B
:10198000004250F1000051EB0451A1F5801102D446
:1019900041EA0C0130BD40F2FF7E4CEA0E510020BE
:1019A00030BD0CEA1355644518BF654581EA030C48
:1019B0000CF0004C41D050EA410E1CBF52EA430EDD
:1019C00002E06146002030BD24422C441BD15FEA76
:1019D000050EF6D0090302BF01460020AEF1140E39
:1019E000B1FA81F5AEEB050401FA05FE0C35C5F13F
:1019F000200100FA05F5C8404EEA000E6FF35F5370
:101A000043F480139CE733F00043B3FA83F504BF3B
:101A1000B2FA82FE75440B3D641BB5F1200E2FBF58
:101A200002FA0EF3AB40C5F1200E22FA0EFE38BFCB
:101A300043EA0E03AA40641C7CE750EA410E14BF3F
:101A400052EA430E6FF000014FF4001515EB430FFF
:101A50008EBF194615EB410F9DE7B4D830BDD4F1C8
:101A60000104B4F120050FDAC4F12005520828BFA3
:101A700042F0010210FA05FE01FA05F57244E2BFD8
:101A8000E0402843E1400FE0352C9ADCC5F120040A
:101A900052EA400220FA05F218BF42F0010231FA80
:101AA00005F0A1400A43002172F1004250F100000C
:101AB00051EB0C0130BD00000048704710000020C1
:101AC000D3BBD9B1B2F5803F5BD2022A1ED98C4676
:101AD000B1FBF2F102FB11C31B0443EA1043B3FB59
:101AE000F2FC02FB1C3380B240EA0343B3FBF2F08A
:101AF00002FB103240EA0C4000237047022A05D94D
:101B00008446B0FBF2F002FB10C270474AB105D127
:101B100000F0010249085FEA30007047002200230C
:101B2000704700F053B80B000200002100207047FE
:101B3000F7D3002200237047904271EB030CF2D3DD
:101B400070B5B1FA81F4B3FA83F52C1BA340C4F14C
:101B5000200532FA05F63343A2405FF00046E64026
:101B600002E05B085FEA3202841A71EB030524BFCE
:101B7000204629467641F4D302000B0030000021B4
:101B800070BD70B5B1FA81F4B2FA82F5C4F12004E7
:101B90006419B4F12006DAD3B2405FF00044F44097
:101BA000002502E052085FEA3303C61A71EB020E09
:101BB00024BF3046714664416D41F3D302000B00EF
:101BC0002000290070BD012000F002B8704700001D
:101BD00080B5AFF30080024A11001820ABBEFBE7CE
:101BE000260002002DE9FC47050066D0DFF8A87644
:101BF000DFF8B466BC68D7F80C802878C10604F01A
:101C00000C0408F0030848D524B10C2C08BFB8F127
:101C1000010F2CD13868810702D5A86900284CD063
:101C2000396808074EBF396871680909286A01F0E8
:101C3000F001814206D200F0F4FA00283DD100F014
:101C4000E3F907E000F0E0F924B9286A00F0E9FAC6
:101C5000002832D100F088FABA6800F074FADFF890
:101C60004006006800F038FB010016D0C6E1A86904
:101C700028B3396841F00101396000F04FFB81461B
:101C80003868810707D400F049FBA0EB090003285E
:101C9000F6D30320B2E100F0B7F92878C10755D593
:101CA000082C04D00C2C08BFB8F1030F17D13868EA
:101CB00081034BD56868002848D101209EE138682F
:101CC0004008400000F0B5F9814638688107E4D546
:101CD00000F024FBA0EB09000328F6D3D9E76868DD
:101CE000B0F5803F04D1386840F48030386011E0AE
:101CF000B0F5A02F386806D140F4802038603968EC
:101D000041F4803105E020F480303860396821F4F6
:101D100080213960686860B100F000FB8146386856
:101D2000810313D400F0FAFAA0EB09006528F6D37A
:101D3000AFE700F0F3FA81463868810306D500F07A
:101D4000EDFAA0EB09006528F6D3A2E72878810711
:101D500013D5042C04D00C2C08BFB8F1020F22D1EB
:101D60003868410502D5E8680028A6D07868296956
:101D700020F0F85040EA016078602878010742D5E9
:101D80006869002870682FD040F00100706000F092
:101D9000C5FA80467068810735D400F0BFFA00F0BC
:101DA0002FF9F7D375E7E86878B1396841F48071A5
:101DB000396000F0B3FA804638684105D6D400F0A7
:101DC000ADFA00F01DF9F7D363E7386820F48070AE
:101DD00000F02FF9804638684105CED500F09EFA14
:101DE00000F00EF9F7D354E740084000706000F0AF
:101DF00095FA80467068810705D500F08FFA00F0EB
:101E0000FFF8F7D345E72878410767D5B86DC100DB
:101E10004FF000080AD4B86D40F08050B8654FF01C
:101E20000108B86D00F0805000900098DFF87C94B5
:101E3000D9F80000C10513D4D9F8000040F480702F
:101E4000C9F8000000F06AFA8246D9F80000C1051E
:101E500006D400F063FAA0EB0A000328F5D318E7D4
:101E6000A868012804D1306840F00100306010E01B
:101E70000528306806D140F004003060316841F038
:101E8000010105E0400840003060316821F00401A4
:101E90003160A86841F2893960B100F03FFA8246AA
:101EA0003068810713D400F039FAA0EB0A004845E6
:101EB000F6D3EEE600F032FA82463068810706D5A6
:101EC00000F02CFAA0EB0A004845F6D3E1E6B8F1A1
:101ED000000F03D0B86D20F08050B865A86A0028C4
:101EE00000F08B80022874D1F868EA6A00F00301E0
:101EF000914201BF00F070012A6B521EB1EB021F2C
:101F00001ED16A6B00F4FE41B1EB022F18D1A96B10
:101F100007290CBF0021012100F400328A420FD1B1
:101F2000EA6B520800F4C001521EB1EB425F07D1C8
:101F3000296C490800F0C060491EB0EB416F44D0E5
:101F40000C2C47D03868410101D43868C1003FF5F6
:101F5000B4AE00F06BF804463868810105D500F096
:101F6000DDF9001B0328F7D393E6F868DFF8401388
:101F7000EA6A0840296B1043491E40EA0110EA6BE7
:101F8000696B520840EA0120296C521E490840EA58
:101F90004250491E40EA4160A96B090940EA4140AC
:101FA000F860386840F080703860F96841F08071FE
:101FB000F96000F0B3F90446386881011DD400F0DF
:101FC000ADF9001B0328F7D363E63868810114D408
:101FD000E7E70C2C3FF471AE00F028F804463868AF
:101FE000810105D500F09AF9001B0328F7D350E6CC
:101FF000F868DFF8C0120840F8600020BDE8F687F6
:10200000A0EB080003287047386840F008003860EB
:102010003968286A21F0F001014339607968E8697C
:1020200021F47F4141EA002179607047386820F04F
:102030008070386000F072B92DE9F04104008846E4
:1020400055D0DFF87462306800F00700404502D2D6
:1020500000F06FF84BD12078DFF83C52810706D5AD
:10206000A068A96801F0F001814200F076F82078BC
:10207000C1072AD56068032802D129688A0108E0CF
:10208000022802D129688A0303E00028296802D1C6
:102090008A0702D42BE04A0529D5A968890840EAB5
:1020A0008100A86000F03AF90746A868616800F06E
:1020B0000C00B0EB810F08D000F030F9C01B41F2EA
:1020C00089318842F1D3032031E02078810706D599
:1020D000A068A96801F0F001884200F03EF830687D
:1020E00000F00700804504D200F023F801D0012061
:1020F0001DE02078410705D5AA68E06822F4E06277
:102100000243AA602178080706D5A968206921F44E
:10211000605141EAC001A96000F026F8AA6800F009
:1021200012F8BDE8F0415E48006800F0D5B8BDE89F
:10213000F0813168C90848EAC1013160306800F0B7
:102140000700404570475D49C2F30312895C534A5A
:1021500001F01F01C8401060704704D2A96821F047
:10216000F0010843A860704770B54B4A554B906822
:10217000D6680025002110F00C0006F00306524C32
:1021800003D00C2812D1012E1AD115682E0704D4C1
:10219000444D2E68C6F3032502E01568C5F3031508
:1021A0004A4E56F8255048B9294624E0042808BF6D
:1021B000214620D008281ED119461CE00C281AD12F
:1021C000D06800F00300022803D0032808BF1D4692
:1021D00000E02546D168D068D268C0F306204543A8
:1021E000C1F30210C2F34161401C491CB5FBF0F081
:1021F0004900B0FBF1F1084670BD2848304A00683C
:1022000013683349C3F3022206E024482C4A0068CD
:1022100013682F49C3F3C222895C01F01F01C84033
:1022200070477CB52B4E054630680024C10002D5AE
:1022300000F07AF80EE0306840F08050306031688D
:1022400001F080510091009800F06EF8316821F0A3
:1022500080513160B0F5007F04D1802D0CD9A12DC3
:1022600009D304E0802D88BF032405D801D10224BE
:1022700002E0702D00D101240F480168C90844EA2A
:10228000C1010160006800F00700A04201D00120F8
:1022900076BD002076BD0000001002400C0000203A
:1022A000080000209410024090100240007000408E
:1022B0008C809DF9FCFFEEFE00200240B04C00082F
:1022C0000810024000127A000024F400004C0008BC
:1022D000204D00085810024070B50E4E044630786C
:1022E0000025A0B14FF47A710B4AB1FBF0F11068F0
:1022F000B0FBF1F000F0A3F848B9102C07D200228F
:1023000021464FF0FF3000F071F8B46000E0012585
:10231000284670BD000000200C00002001484068E5
:10232000704700BF00000020DFF87C00006800F468
:10233000C060704710B5DFF87010B0F5007F086816
:1023400000F4C0601DD1B0F5007F22D00A68DFF82C
:102350005C30012060F34A220A6032201C68DFF8FA
:1023600050204443B4FBF2F0401C00E0401E4A6998
:10237000530501D50028F9D14869410509D5032045
:1023800010BDB0F5806F04D00A68022060F34A22C5
:102390000A60002010BDDFF81C00FFE7016841F46F
:1023A0008061016070470000007000400C00002058
:1023B00040420F00047000400901020002D42A4884
:1023C00081547047294B02F00F021A4402F8041C92
:1023D0007047274B19684FF6FF020002114000F4C6
:1023E000E0600843234908431860704770B5204BEC
:1023F0001C68C4F302230124C3F10705052D2EBF79
:102400000F2504FA05F56D1E1E1D072E34BF00238F
:10241000DB1E2940994004FA03F3BDE870405B1EBF
:102420001A401143C8E70000010007D4012200F060
:102430001F01114B8A40400943F82020704710B516
:10244000401EB0F1807F01D3012010BD0B4C6060B5
:102450000F214FF0FF30FFF7AFFF0021A1600720F1
:102460002060002010BD000000E400E018ED00E056
:102470000CED00E00000FA0500E100E010E000E0F3
:1024800038B5040001D1012032BD04F1400568785F
:1024900020B900212970204600F003FB00F041F82C
:1024A0006068216820F0706008612068816821F40C
:1024B00000418160E0680128A0680CBF40F4004042
:1024C00040F4044021688860E068022803D1206855
:1024D0004FF4006141602068416841F0007141F4AF
:1024E000004141602068C16821F40041C160606919
:1024F0002169A2690143206841EA0221C160206A82
:10250000E1692268014311602068016841F001011E
:102510000160002068602021697020630021A9709B
:1025200032BD2420687020680168490849000160B4
:10253000704700904FF08073FF22704700904FF07B
:102540000073D2B270478146CDF800901923012262
:102550004FF40041304600F07DB92DE9F84F00F00E
:1025600053F960D10A9D002D1CBF0B9F002F03D192
:102570004FF40071616054E02078012853D00121AC
:102580002170FFF7CBFEFFF7DEFF002849D12120A5
:1025900000F043F94FF0807300F064F80C994A465C
:1025A00000F05DF858B9BBF1010F02D000F051F80E
:1025B00028B900F00BF9802100F05DF810B100207F
:1025C00020702EE0708DFF25B0F5807F05D300F0E0
:1025D00065F800F04CF80C9F02E000F057F8F8E7BF
:1025E0004A46394600F03BF800281AD100F022F89C
:1025F00078B189B269B900F041F8002811D100F032
:1026000015F802D300F04AF801E000F03FF800F0BE
:102610002EF8708D0028E3D100F0E2F800F045F8C4
:1026200002D0012000E00220BDE8F28F708DB0F5ED
:10263000807F7047706A326801789162706A411CCD
:102640007162708D411E7185308D411E3185708D96
:10265000704731684FEA1A2088624A460C99304622
:1026600000F019B9DFF8C41100915FFA8BF241460E
:10267000304600F0D7B9304600F0ECB8CDF8009005
:102680003B4600228021304600F0E4B8728D32854E
:10269000002000904FF00073D2B2704735850020C3
:1026A00000904FF08073FF22704701000DD1326817
:1026B0002020D0613268DFF87C015368034053600A
:1026C000202262700020A0702070080070472DE961
:1026D000F84F00F099F876D10A9D002D1CBF0B9F92
:1026E000002F03D14FF4007161606AE02078012867
:1026F00069D001212170FFF711FE814630688169A0
:1027000008040ED5FFF70AFEA0EB09001A28F5D33E
:10271000606840F020006060202161700020A0709F
:1027200017E0222000F079F80023FFF79BFF0C99B7
:102730004A46FFF794FF58B9BBF1010F02D0FFF7EB
:1027400088FF28B900F042F84021FFF794FF10B14C
:102750000020207035E0718D3548FF25B1F5807F70
:1027600006D33585FFF7E5FEFFF781FF0C9F04E0F8
:10277000728D3285FFF7E2FEF6E7CDF800903B461A
:1027800000220421FFF777FF00281AD100F02DF86E
:1027900078B189B269B9FFF771FF002811D1FFF74D
:1027A00045FF02D3FFF77AFF01E0FFF76FFFFFF766
:1027B0005EFF708D0028E0D100F012F8FFF775FF82
:1027C00002D0012000E00220BDE8F28F30685FFAFD
:1027D0008AFAC0F828A0CDF8009000220C9B704720
:1027E0004A463946304600F07EB83068416A706A21
:1027F0000170716A308D4A1C411E72623185708D84
:10280000421E7285708D7047064606F14004884668
:102810006078202892469B46704760704021A170E6
:1028200000206060756277857063704700200080CB
:102830000024008000E800FE006881698A0744BF28
:10284000002181628169CA0703D4816941F00101D5
:10285000816170472DE9F041069F05460E4690467E
:102860001C46286881693140B1420CBF012000201C
:1028700040450DD114F1010FF3D0FFF74FFDC01B00
:10288000844201D3002CECD100F021F8012000E0BB
:102890000020BDE8F08170B505460C461646286854
:1028A0008169880711D400F038F808B1012070BDA3
:1028B00014F1010FF3D0FFF731FD801B844201D3E7
:1028C000002CECD100F003F8F0E7002070BD05F11A
:1028D00040002022416841F0200141604270002107
:1028E00081700170704770B505460C461646286821
:1028F000816988060FD400F010F838B9FFF70EFD93
:10290000801B844204D3002CF1D101E0012070BD72
:10291000FFF7DDFFFAE7002070BD3246214628466A
:10292000FFE72DE9F84307468946386881690024A6
:102930000025C906904607F140063ED51022C26127
:10294000386881698A0633D4210031D119F1010F29
:10295000F6D0FFF7E3FCA0EB0800814502D3B9F104
:10296000000FEDD138684168B27883691B040AD53D
:10297000490408D4202A06D0416841F480414160CE
:10298000FFF7CCFC8046386881698806D8D4FFF709
:10299000C5FCA0EB08001A28F5D3706840F02000B1
:1029A0007060202171700020B07030700124EAE75F
:1029B0000CB92021C1610425012438688169CA0548
:1029C00005D54FF4807345F00105C3610124480526
:1029D00006D538684FF4806245F00805C2610124CD
:1029E000880507D538684FF4007145F00205C161CC
:1029F000012401E020000DD03846FFF71DFF3968A3
:102A000000F00BF8202071680D4375607070002194
:102A1000B17031702046BDE8F2830C484A6802402C
:102A20004A60704770B50068049C4568084EC1F361
:102A3000090141EA0241194346EA54562143B5438C
:102A400021F000412943416070BD000000E800FE14
:102A5000FF63FF0310B5324C3248206040F614612A
:102A600001200022E0606160A26022616261A261D7
:102A7000E26122622046FFF703FD08B100F0BEF8D4
:102A80000021204600F0BCF808B100F0B7F80021A2
:102A9000204600F0CAF818B1BDE8104000F0AEB80A
:102AA00010BD10B5A8B004461422002101A800F002
:102AB000E6F88822002106A800F0E1F8206819490C
:102AC00088422BD18022002106921B9106A800F09B
:102AD000E1F808B100F092F8134C206840F00200D1
:102AE00020601222216801F0020100914FF4406140
:102AF00000980E48019102920121039103220421C2
:102B00000591049201A900F06DFBE06840F480009B
:102B1000E060E06800F480000090009828B010BDEC
:102B2000C0060020005800404C100240000400483D
:102B300080B500F069FC00F017F800F075FC00F0BB
:102B4000C9FDFFF787FF00F02FFE00F07DFE00F0CB
:102B5000D5FE00F0DBFE00F065FF01F006F801F0A5
:102B600079F801F019F8FAE780B596B0442200210F
:102B700005A800F084F814220021684600F07FF8D0
:102B80004FF40070FFF7D6FB08B100F037F801F002
:102B9000E5F81948016821F0180101601422059236
:102BA0000121602207910B910D92002101220C91CD
:102BB00010921192022128220F91129207210222D3
:102BC00013911492159205A8FFF70CF808B172B68C
:102BD000FEE70F2003210090019100220292039250
:102BE000049204216846FFF727FA08B172B6FEE79F
:102BF00000F0ECF917B000BD9010024072B6FEE78D
:102C000030B500F140025378202B0CD11478012C00
:102C100009D000F01DF824F480541C6003681D687E
:102C20002943196020E0022030BD30B500F1400298
:102C30005378202B0AD11478012C07D000F008F823
:102C400024F4706444EA01241C600DE0022030BDCD
:102C5000012313702424547003681D686D086D00EF
:102C60001D6003681C6870470068016841F001013D
:102C700001602020507000211170002030BD10B57F
:102C8000044610460A460146204601F06FF82046E9
:102C900010BD00002DE9FC47064600243068DFF82F
:102CA00020740105A04621D5706E70B1B0F5800F7B
:102CB00017D0B0F5000F03D0B0F5400F09D013E0E6
:102CC0003A6842F480323A6004E0002100F07CF976
:102CD000044654B9F96F706E21F440010143F9675D
:102CE00004E000F06BF9F3E70124A0463068C1046A
:102CF00021D5B06EA8B1B0F1807F17D0B0F1007FC0
:102D000003D0B0F1407F04D013E0396841F4803142
:102D100039607CB9F96FB06E21F040710143F967F9
:102D200009E0002100F050F90446F2E700F046F90E
:102D3000FAE70124A046306881032BD5F86CC10066
:102D40004FF000090AD4F86C40F08050F8644FF05E
:102D50000109F86C00F0805000900098DFF83454BE
:102D6000286840F480702860FFF7D8FA8246286807
:102D7000C10500F18280FFF7D1FAA0EB0A00032819
:102D8000F5D30324A046B9F1000F03D0F86C20F06E
:102D90008050F8643078C10705D5FA6FB06B92089F
:102DA00040EA8202FA673178880705D5F96FF06B3F
:102DB00021F00C010143F9673178480705D5F96F17
:102DC000306C21F030010143F9673178080705D5EF
:102DD000F96F706C21F0C0010143F9673178C806C2
:102DE00005D5F96FB06C21F440710143F967317872
:102DF000880605D5F96FF06C21F440610143F9674D
:102E00003168880505D5F96FF06D21F44021014343
:102E1000F9673168480505D5F96F306E21F4401126
:102E20000143F9673178480605D5F96F306D21F413
:102E300040510143F9673178080605D5F96F706D87
:102E400021F440410143F9673168C80505D5F96FA0
:102E5000B06D21F440310143F9673168880446D5EB
:102E6000F96FF06E21F040610143F967F06EB0F147
:102E7000006F34D100F09DF839E0002C82D1DFF8EA
:102E80005043206810F440701CBFD6F8841088426C
:102E90000BD02068216841F48031216020F440701B
:102EA000226822F4803222602060C0070FD5FFF72D
:102EB00035FA05462068810709D4FFF72FFA401B31
:102EC00041F289318842F5D34FF003085BE721686E
:102ED000D6F8840021F440710143216053E7B0F13A
:102EE000806F04D100F06FF8010018BF8046306891
:102EF000010314D5FA6F306F22F040620243FA6783
:102F0000306FB0F1006F02D100F053F807E0B0F17C
:102F1000806F04D100F057F8010018BF8046306878
:102F2000410314D5FA6F706F22F040620243FA67D2
:102F3000706FB0F1006F02D100F03BF807E0B0F124
:102F4000806F04D100F03FF8010018BF8046306860
:102F5000410418D5FA6FB06F22F040520243FA676D
:102F6000B06FB0F1805F03D1022100F02DF807E0CF
:102F7000B0F1005F07D1022106F1200000F0A2F8B5
:102F8000010018BF80463068010405D5FA6FF06F64
:102F900022F080420243FA673168C80306D5F96F10
:102FA000D6F8800021F000410143F9674046BDE8B2
:102FB000F687386840F4801038607047002106F1C9
:102FC000200000F07FB80121301D05E08148016834
:102FD00041F00401016070472DE9F04105467D4F45
:102FE00028680C46F968002611F0030F0DD0F96827
:102FF00001F00301814231D180B3F8686968C0F300
:103000000210401C88420ED028E0012804D025D3AD
:1030100003281DD018D321E03A6891071ED5FA681D
:10302000696800F0C9F8386820F0806000F0CCF8DA
:1030300080463868010113D5FFF770F9A0EB08004E
:103040000328F6D3032637E039684A05E7D405E0BC
:1030500039688A03E3D439684A03E0D401262BE0B7
:10306000A9682CB93A695C48EB6800F095F80FE064
:10307000012C3A6909D12B69584802405B0842EAA1
:1030800001215B1E41EA435102E06B6900F08BF8BD
:103090003961386840F0806000F096F8044638687E
:1030A000010105D4FFF73AF9001B0328F7D3C9E75C
:1030B0003869A969084338613046BDE8F0810000ED
:1030C0000C1002402DE9F0410646424F30680C4694
:1030D000F968002511F0030F0DD0F96801F0030124
:1030E000814231D180B3F8687168C0F30210401C8E
:1030F00088420ED028E0012804D025D303281DD013
:1031000018D321E03A6891071ED5FA68716800F07B
:1031100053F8386820F0805000F056F88046386840
:10312000810013D5FFF7FAF8A0EB08000328F6D3C7
:1031300003252BE039684A05E7D405E039688A039E
:10314000E3D439684A03E0D401251FE0B1687A6905
:10315000002C04D12048F36800F01EF802E0336927
:1031600000F021F87961386840F0805000F02CF8C8
:1031700004463868810005D4FFF7D0F8001B032807
:10318000F7D3D5E778697169084378612846BDE8C7
:10319000F081000000700040024042EA01211B095A
:1031A00041EA434170470E4802405B0842EA012170
:1031B0005B1E41EA4361704722F073021043491ECF
:1031C00040EA0110F86070473860FFF7A7B80000C8
:1031D0009010024000100240FF80FDFFFF809FFF23
:1031E000FF80FFF92DE9F84F4FF000097C4A7D4B35
:1031F0004FF00F0805460E4638E07B4CA54214BF41
:10320000072406248C4079493C4341F82C40C143B3
:10321000D2F808C0746801EA0C0CE40248BF40EA26
:103220000C0CC2F808C0D2F80CC0746801EA0C0C8F
:10323000A40248BF40EA0C0CC2F80CC0D2F804C08B
:10324000746801EA0C0CA40348BF40EA0C0CC2F8F5
:1032500004C0D2F800C001EA0C0C7168C90348BF71
:1032600040EA0C0CC2F800C009F10109316831FADA
:1032700009F000F0A480012404FA09F414EA010022
:10328000F2D04FEA490C032101FA0CF16FEA010E6A
:103290007168E44301F00307012F1CBF01F0030133
:1032A000022910D1A968F7680EEA010107FA0CF7A4
:1032B0003943A96069687768C7F30017214007FAA6
:1032C00009F739436960716801F00307032F07D1DB
:1032D000EF6AC1F3C0013C4001FA09F10C43EC6212
:1032E0004FEA8901347904F00304032C1FD0EC6801
:1032F000B7680EEA040407FA0CF73C43EC60347933
:1033000004F00304022C12D14FEAD90405EB840423
:1033100001F01C07D4F820A008FA07FB2AEA0B0AE0
:10332000D6F810B00BFA07F747EA0A0727622C68AD
:103330000EEA0407347904F0030404FA0CF444EAB6
:10334000070CC5F800C0746814F4403F8CD0D3F863
:1033500000C0264C4CF0010CC3F800C04FEA990C99
:10336000D3F800E00EF0010ECDF800E001F00C0102
:10337000DDF800E054F82C4008FA01F724EA0707CA
:10338000B5F1904F08BF002418D0194CA54208BFD2
:10339000012413D0174CA54208BF02240ED0164CAE
:1033A000A54208BF032409D0144CA54208BF042439
:1033B00004D0134CA5427FF420AF052422E7BDE8DA
:1033C000F18F0AB181617047816270470D4A1368BD
:1033D00001460B421CBF116000F0FBBC70470000AF
:1033E000000401406010024000180048080001403D
:1033F0000004004800080048000C00480010004885
:103400000014004814040140032010B5FEF7E1FF4A
:103410000020FEF761FF0024002814BF012400F003
:10342000D9FC204610BD00002DE9F84386B01422D7
:1034300000216846FFF723FC8D48DFF838920168C9
:103440008D4D8E4EDFF8388241F01001016048F258
:103450000414026802F0100205924FF488170599CF
:10346000026842F004020260036803F0040305935B
:103470000599026842F001020260036803F001034B
:1034800005930599026842F002020260036803F0A6
:10349000020305930599026842F0080202600022C7
:1034A000006800F0080005904FF48A7105984846BE
:1034B000FFF787FF002221464FF09040FFF781FF82
:1034C00000224FF214012846FFF77BFF002241F251
:1034D00081013046FFF775FF01224FF4005130465D
:1034E000FFF76FFF00224FF410714046FFF769FFAE
:1034F000012220212846FFF764FF012201214846CE
:10350000FFF75FFF40F2151100F0DBF84846FFF7C8
:1035100069FE6A200090019700210291484600F060
:10352000BBF84FF400510091019701210291032251
:10353000039269464046FFF755FE00220F212820DE
:10354000FEF754FF2820FEF76FFF3F2000F0A7F89A
:103550004046FFF747FE0320022100F093F8039056
:10356000082200F0A8F801200190002202920392A4
:10357000009400F0A1F80022029203920820022198
:1035800000900191012200F096F810200B2100F02C
:1035900079F800F091F8022100F075F8E02003219D
:1035A00000900391052200F086F8012100F07EF8DA
:1035B000284600F071F8022000F071F82846FFF765
:1035C00011FE4FF2340100F07CF82846FFF70AFEA6
:1035D0004CF6044100F06AF8304600F05DF843F222
:1035E000810100F06EF800F054F84FF4107100F013
:1035F00068F84046FFF7F6FD4FF4C07100F056F84A
:10360000404600F049F80022029202200321009077
:1036100001900391052200F03AF8782000900221F1
:1036200000F031F803210391072200F030F8122155
:1036300000F029F84FF44070032100900391042218
:10364000049269462846FFF7CDFD0022002117208D
:10365000FEF7CCFE1720FEF7E7FE0022002128200F
:10366000FEF7C4FE2820FEF7DFFE07B0BDE8F083BA
:103670004C1002400010004800040048000C0048B4
:1036800000080048009001910022029270470492C5
:1036900069463046FFF7A6BD6946FFF7A3BD0B217B
:1036A00000900191002202926946704700910197B3
:1036B000002102917047049269464FF09040FFF755
:1036C00091BD00910122002102910391019269466E
:1036D00070470000012280B52E482F490271016019
:1036E0004FF48072826100230422026202210122CF
:1036F0008360C16003614361C36143628262C362EC
:10370000036300F07FFB18B1BDE80140FFF776BA14
:1037100001BD10B5A8B01422002101A8FFF7AFFA2F
:103720008822002106A8FFF7AAFA1C4C206870BB6B
:103730004FF4803100220691269206A8FFF7AAFADC
:1037400008B1FFF75BFA1648416941F080714161A9
:10375000416901F0807100910099026842F0100205
:1037600002604FF42071006800F010000090022207
:1037700000980C48019102920021039104910621C6
:10378000059101A9FFF72EFD2068401C206028B09C
:1037900010BD00005807002020600140B407002041
:1037A0004C1002400010004880B5234823490160B6
:1037B000022210214260C16004231722002183608D
:1037C00002614161816100F0C3FB18B1BDE80140B5
:1037D000FFF714BA01BD10B586B0044614220021CB
:1037E00001A8FFF74CFA21681448814221D11448FE
:1037F000416841F480714160416801F48071009139
:103800000099026842F0100202604FF47C410068A7
:1038100000F010000090022200980A4801910292E4
:103820000021039103220A210591049201A9FFF7C7
:10383000D9FC06B010BD000014070020001000A045
:103840004C1002400010004880B52848284901600B
:103850004FF482724FF44071C16042600721C1622F
:1038600000234FF400720821836003614361826189
:10387000C3610362436283620363416300F0DCFB64
:1038800018B1BDE80140FFF7B9B901BD10B586B068
:1038900004461422002101A8FFF7F1F92168144819
:1038A000814221D11348C16841F40041C160C1681F
:1038B00001F4004100910099026842F004020260A4
:1038C0004FF4E051006800F00400009002220098DC
:1038D00009480191029200210391032206210591DA
:1038E000049201A9FFF77EFC06B010BD5C06002023
:1038F000003C00404C1002400008004880B542489F
:10390000424900F00BF800B118E001BD80B5404815
:10391000404900F003F800B110E001BD01604FF430
:10392000E13200230C2142608360C3600361416186
:103930008361C3610362436200F0EEBBBDE80140F6
:10394000FFF75CB910B5A8B0044614220021684600
:10395000FFF795F98822002106A8FFF790F9206863
:103960002A492D4C88421FD1012200210692149130
:1039700006A8FFF78FF908B1FFF740F9606940F436
:1039800080406061606900F480400590059821687E
:1039900041F002012160C021226802F0020205927A
:1039A000022205981D4822E01A4988422AD10422A1
:1039B00000210692169106A8FFF76CF908B1FFF7EF
:1039C0001DF9E06840F48020E060E06800F48020A9
:1039D00005900598216841F0080121604FF440717D
:1039E000226802F008020592022205980C48009114
:1039F000019200210291032207210491039269465A
:103A0000FFF7F0FB28B010BD54050020003801403E
:103A1000D8050020004800404C1002400004004837
:103A2000000C0048062280B5404842604FF0A0419B
:103A3000022300220160C3608361C26102624262AC
:103A400082620263C26200F00FFE18B1BDE801405D
:103A5000FFF7D4B801BD10B5A8B004461422002168
:103A600001A8FFF70CF98822002106A8FFF707F943
:103A70002068B0F1A04F52D14FF4005106914FF0A1
:103A80008062012107910891219218210991072252
:103A900002210B910C910A924FF480110D9106A80E
:103AA000FFF7F8F808B1FFF7A9F8214C206840F0BB
:103AB000010020600022216801F0010100914FF413
:103AC0000071009801910292039200F02AF80221FD
:103AD0000291002203924FF4E050032101900491DF
:103AE0000A22059200F01DF8206840F48050206002
:103AF000216801F4805100910098E168C8000CD45D
:103B0000E16841F08051E16000F014F8FEF743FCF9
:103B1000E06820F08050E06001E0FEF73CFC28B057
:103B200010BD01A94FF09040FFF75CBB480000209A
:103B30004C100240E06800F0805000900098704700
:103B40001FB50A4600218DF80C104FF47A7303A9B3
:103B50000091029301240146019401237948FEF764
:103B6000B6FD9DF80C0004B010BDF8B5202100F0A2
:103B70006FF885218DF80C104FF47A70012203A99B
:103B800002900192009101232022BE216D48FEF790
:103B9000E4FC05B000BD00002DE9F0412DED028BE5
:103BA0009AB0302100F054F80446312100F050F86A
:103BB0000546362100F04CF80646372100F048F85B
:103BC0003A2106EB002600F043F807463B2100F0BF
:103BD0003FF807EB0027282100F03AF8804629211A
:103BE00000F036F808EB00206408B6B280B26D0829
:103BF000BFB2801B2D1BBE1B00EE100A00EE905AB8
:103C000001EE106A01EE904AB8EEC00AF8EEE00A42
:103C1000B8EEC11AF8EE611A60EE200A31EE211AF0
:103C200080EE818A18EE100A00F08CFD00F07FF81B
:103C300045A000F0ABFD684600F0A8FD3FA000F0F5
:103C4000A5FD1AB0B0EE480ABDEC028BBDE8F081CC
:103C5000BE2075E72DE9F8432DED028B9AB0322195
:103C6000FFF7F6FF04463321FFF7F2FF0546352143
:103C7000FFF7EEFF3C21814609F0030044EA0024EF
:103C8000FFF7E6FF07463D21FFF7E2FF80463E21B2
:103C9000FFF7DEFF06463F21FFF7DAFF46EA002680
:103CA0002B21FFF7D5FF2A2147EA08278046FFF797
:103CB000CFFF40EA0820E4083FB200B2C01B00EE8C
:103CC000100A09F00C0045EA8015C4EBE50000EE8F
:103CD000900AB8EEC00AF8EEE00A36B220EE200AEA
:103CE000F71B00EE907AF8EEE00A80EE200A00EE74
:103CF000904AF8EEE00A30EE208A18EE100A00F042
:103D000021FD00F014F800BF0FA000F03FFD684651
:103D100000F03CFD09A000F039FD1AB0BDEEC80A64
:103D200010EE100ABDEC028B80B2BDE8F2830246B1
:103D30000B4603A1684600F039BD00000D0A0000E3
:103D400025660000C006002043757272656E7420FF
:103D500054656D702069733A2000000002480168C4
:103D600041F48071016070470070004062F30F22DF
:103D700062F31F42401810F0030308D0C91A1FD382
:103D8000DB0748BF00F8012D28BF20F8022D1300E3
:103D900030B414461546103928BF20E93C00FAD843
:103DA000490728BF20E90C0048BF40F8042D8900CE
:103DB00028BF20F8022D48BF00F8012D30BC704705
:103DC000C91818BF00F8012DCB0728BF00F8012D36
:103DD000704770470A4881B0816841F001018160F5
:103DE000816801F0010100910099026842F080525F
:103DF0000260006800F080500090009801B07047A9
:103E00005810024070B5040005D000F067F8291D75
:103E100051F8200008B1012070BD2046FFF779FC61
:103E20002868401C2860296801291AD1DFF8001190
:103E3000086820F0804008600A68A06802430A60B1
:103E40000B6823F47F030B602079012805D10A68F1
:103E5000E068401E42EA00420A60086840F0004004
:103E600008602068016821F47141016003682169DC
:103E700062690B43A16913430B43036003681B0989
:103E80001B0103600668E269216A16430E4306605F
:103E9000826822F45F0282608268616AA36A0A43D0
:103EA0005B1E42EA03428260416801F00701416003
:103EB0004168E26A236B41EA022141EAC3014160A1
:103EC0000122016841F08001016084F8342000F093
:103ED0000AF8291D41F82040002070BD2068DFF855
:103EE000545000F000B81249884201D100207047B8
:103EF0001149884201D1012070471049884201D1FF
:103F0000022070470E49884201D1042070470D49B4
:103F1000884201D1052070470B49884201D1062013
:103F200070470A49884201D1072070470320704733
:103F30000060014090070020206001404060014087
:103F400080600140A0600140C0600140E06001402D
:103F5000F8B50446FEF7E2F906460CB90120F2BDB9
:103F600004F13805687838B9002129702046FFF738
:103F700032FC41F28830A860334620680168A268AC
:103F800021F47061521E41EA0221016000F028F81C
:103F900001001ED122681049136866680B40E16871
:103FA00043EA06630B4313600C4923685E68276984
:103FB00062690E4046EA0746A16916430E435E60F9
:103FC00021680A6842F001020A600021696001224A
:103FD0006A7000212970F2BDEFFFFF00FEF8E0FFDC
:103FE0000022A868009020212046FFE72DE9F0413B
:103FF000069C05460E4690461F462868816816EACC
:10400000010018BF0120404512D014F1010FF4D077
:10401000FEF784F9C01B844201D3002CEDD10420AB
:1040200085F839000120E96B41F00101E96300E006
:104030000020BDE8F081000038B5040001D1012066
:1040400032BD606A30B96068B0F5827F05D000216A
:10405000E16102E00020206160610020A06204F1C3
:104060005C05687820B9002129702046FFF70EFC16
:104070000220687000F04AF8E168B1F5E06F04D9F9
:104080000020B1F5706F03D104E04FF4805001D0EF
:104090000021A1626168A268237C01F4827102F4AC
:1040A00004421143227D03F002031943A36902F085
:1040B00001021143227F03F40073194394F8203066
:1040C00002F038021143A26A03F080031943236807
:1040D00002F4005211431960A16994F8242094F865
:1040E0003430090C01F0040102F010021143E268BF
:1040F00003F00803194302F4706211430843216876
:104100004860002068600121697032BD2068016844
:1041100021F040010160704738B5040009D004F176
:104120007405696809B900F01EF800F021F801284B
:1041300001D1012032BD606A08B100F02AF800F018
:104140000AF821F02A01FFE7816000F01BF8BDE8C2
:10415000324000F00ABA2068416821F49041416081
:10416000206881687047002028702046FFF7EABB6E
:1041700024216960206802685208520002602046CB
:1041800000F074B82068016841F001010160204628
:104190007047204600F086B92DE9FC47054605F139
:1041A0007404884660682028174699464DD1B8F1B6
:1041B000000F14BF002F012048D02078012844D0E0
:1041C000012121700020E0602122626005F150068B
:1041D000FEF7A4F8378082467780A868B0F5805F44
:1041E00004BF286900280EBF47464046002700212B
:1041F000217080460FE018F8012B028508E028683E
:10420000B8F1000FF7D137F8021BC1F3080101859F
:104210007088411E718053467088CDF80090002848
:1042200007D000228021284600F0CEF90028E6D0F1
:1042300005E000224021284600F0C6F908B103201D
:1042400004E020206060002000E00220BDE8F68746
:10425000286800F1080151E8001F490800F108032F
:10426000490043E80010002870470000F8B50446F4
:10427000834822681368A168034020690B43616981
:104280000343E0690B430343136000255168E06872
:1042900021F4405101435160A36978498A421CBF0F
:1042A000206A03439668774F774826F43066334395
:1042B0009360BA424FF40043744E32D1366806F030
:1042C0000306032E3AD8DFE806F0026E5F8001276E
:1042D000E169B1F5004F4FF6F07640F0A6805FB18E
:1042E000012F00F09A80022F0AD0042F00F098804E
:1042F000082F00F09880BAE0FDF77FFF00280FD06C
:1043000061684A0802EB4002B2FBF1F0A0F1100133
:10431000B142F0D20640C0F3420006432068C660B6
:10432000A6E05B4FBA4221D1366816F00C065DD08C
:10433000042E38D0082E27D00C2E46D010278A42C3
:10434000C6D137B1022F08D0042F51D0082F52D038
:104350008DE0FDF752FF0028E2D0626802EB4201D7
:10436000884202D31303834247D280E0494FBA42C6
:104370000CD1366816F0300638D0102E13D0202E0F
:1043800002D0302E21D0D9E70227D8E7424FBA42D7
:104390000BD1366816F0C00628D0402E03D0802EF0
:1043A000F2D0C02EEEE70427C9E73C4FBA420ED147
:1043B000366816F4407619D0B6F5807FF3D0B6F59E
:1043C000007FE1D0B6F5407FB8D10827B7E78A4231
:1043D000B4D1366816F4406608D0B6F5806FE2D0E6
:1043E000B6F5006FD0D0B6F5406FCBE70027A6E753
:1043F000FDF7BAFEAFE71846AFE7010E560816EB19
:10440000002069410023FDF75BFBA0F54071244AC1
:1044100091422CD22168C8602AE0FDF7F6FE6DE7D4
:10442000FDF7A2FE6AE718466AE747B1012F16D0EA
:10443000022F07D0042F15D0082F16D017E0FDF754
:10444000DCFEA8B1616800EB5100B0FBF1F0A0F117
:104450001001B1420BD2226880B2D06008E0FDF7B3
:10446000D4FEEEE7FDF780FEEBE71846EAE701250C
:1044700000206066A0662846F2BD00000080004073
:10448000F369FFEF003801400024F4008810024077
:104490000044004000480040004C004000500040F4
:1044A00000FD0F0090F82410CA0706D50268536873
:1044B000816A23F400330B43536090F824108A0779
:1044C00006D502685368C16A23F480330B435360F6
:1044D00090F824104A0706D502685368016B23F44C
:1044E00080230B43536090F824100A0706D5026816
:1044F0005368416B23F400430B43536090F824103E
:10450000CA0606D502689368816B23F480530B4377
:10451000936090F824108A0606D502689368C16BF0
:1045200023F400530B43936090F824104A0610D5EF
:1045300002685368016C23F480130B435360036CCF
:10454000B3F5801F05D15368416C23F4C0030B43BE
:10455000536090F824100A0606D501684A68806CFA
:1045600022F4002202434A607047F8B5044604F181
:1045700074050020E8606FF07E47FDF7CFFE064629
:10458000206801680A0708D50097334600224FF4D7
:104590000011204600F018F860B9206801684A0749
:1045A0000AD50097334600224FF48001204600F0E0
:1045B0000BF808B10320F2BD202068602021A9601B
:1045C000002020662870F2BD2DE9F041069C0546CA
:1045D0000E4690461F462868C1693140B1420CBF63
:1045E00001200020404529D114F1010FF3D0FDF73F
:1045F00095FEC01B844200D34CB900F029F8FFF7A8
:1046000027FEFCD100F01DF80021017014E028689D
:1046100001684A07DFD5C1690805DCD52A684FF46F
:104620000061116200F014F8FFF712FEFCD100F0F7
:1046300008F8C16000220270032000E00020BDE8FD
:10464000F08105F1740020214160202282607047D2
:10465000286850E8001F024621F4D07142E800109B
:104660000028F5D17047000070B504008AB04BD027
:10467000266804F2BC45687820B9002129702046DC
:10468000FFF7E9F903206870F16BC8055CBF0021F2
:104690002161206800F0DAF883B000F04EF80EBC1B
:1046A000206800F0A3F800282CD12068002100F039
:1046B000D3F80021242000260AE000FB01F2224466
:1046C0003C320123537011701181002300F02EF849
:1046D00062689142F1D3002109E000FB01F222441B
:1046E00002F51F7200231170537000F01FF862680A
:1046F0009142F2D383B000F020F80EBC206800F0A5
:10470000D7F818B10220687001200DE084F8380055
:1047100001216970606A012804BF204600F0CEF9CB
:10472000206800F0B9F900200AB070BD491C16716C
:10473000D36016619361C9B27047211D6846342267
:10474000FCF734BDC0F3C75181B1FF2906D0C110B9
:10475000400721F0E04101F16051704741020CBF78
:1047600040F4E0016FF000410020704700F000418C
:1047700000020AD0B0FA80FC00FA0CF001F160519E
:10478000A1EB0C5101EBD0214005704710B5044658
:10479000FCF7D6FC82B24FF0FF3321460248FFF708
:1047A000FBFC002010BD0000540500200CB430B507
:1047B00083B00A4606A9029104460025019400959B
:1047C00002AB01A9084878441E30FBF7DDFC019AD2
:1047D000157000284EBF04460198041B204603B004
:1047E00030BC5DF80CFB00BF0FC9FFFF0FB4C16800
:1047F00041F04001C16000220092DFF8B812009A37
:10480000521C0092009A8A4213D20369002BF6D5FB
:1048100000230093026942F001020261009A521CD7
:104820000092009A8A4204D20369DA07F6D4002281
:1048300000E003220A990029816B0CBF41F480310A
:1048400021F480318163104604B0704781684908C3
:10485000490081600020704738B504460025E068B3
:1048600020F0C0400129E0600FD1E06840F0005026
:10487000E060012000F036F960696D1CC10701D4C9
:10488000322DF6D3322D11D10EE069B9E06840F037
:104890008040E060012000F025F960696D1CC107CF
:1048A000F0D5322DF6D3EDE7012032BD002032BD28
:1048B0000EB42DE9F043064604464FF000080021EF
:1048C000002004EB8102491C0F29C2F80401F8D32F
:1048D000119D06F5006785B9786840F002007860A0
:1048E000A06B20F40010A063216841F0400121601A
:1048F000206840F08000206003E0A06B40F40010CE
:10490000A06306F5606300221A600321D7F800C097
:10491000C7F800C0204600F0B7F81021204600F08C
:1049200070F808B14FF00108204600F08CF808B18B
:104930004FF001080020386100217961F8614FF6DD
:104940007F334FF0904C4FF0006E3246814605E0C9
:1049500000260E60C1F810908B60401C07998842B9
:104960000FD202EB401101F510610E68002EEFD559
:10497000002806BF02F51066C6F800E0C1F800C0C6
:10498000E8E7002005E000260E60C1F810908B607B
:10499000401C079988420FD202EB401101F53061AB
:1049A0000E68002EEFD5002806BF02F53066C6F867
:1049B00000E0C1F800C0E8E7386920F48070386191
:1049C0000021A1616FF080406061A169DFF8E8001B
:1049D00041F01001A161A1690143A1610D9818B1D5
:1049E000A06940F00800A061012D05D1A06940F048
:1049F000804040F00400A0614046BDE8F0035DF84F
:104A000010FB18B500220092DFF8A820009B5B1C69
:104A10000093009B934212D20469002CF6D5002427
:104A20008901009441F0200101610099491C009125
:104A30000099914203D203699906F6D401E003205C
:104A400012BD002012BD81B000210091DFF864107A
:104A5000009A521C0092009A8A4210D20369002BDD
:104A6000F6D50023009310220261009A521C009296
:104A7000009A8A4203D20369DA06F6D401E00320E1
:104A800000E0002001B0704700F5006002681143AB
:104A9000FFE701600020704700F5606100F50060ED
:104AA0000A68920892000A60416841F00201416080
:104AB00000207047410D030000383C80016800F27F
:104AC000F44001220023C2600370886940F0006056
:104AD0008861486D40F0805040F003004865002038
:104AE0007047000038B50446FDF718FC14F1010FBB
:104AF000054602D0044801786418FDF70FFC401BFE
:104B0000A042FAD331BD00BF00000020FEE7FEE75F
:104B1000FEE7FEE7FEE770477047704700F028B8F1
:104B200080B52020FEF752FC4020FEF74FFC80208D
:104B3000FEF74CFCBDE802404FF48070FEF746BC27
:104B400080B54FF48060FEF741FC4FF40060FEF743
:104B50003DFC4FF40050FEF739FC4FF48040FEF767
:104B600035FCBDE802404FF40040FEF72FBC0000CA
:104B70000248416802788A184260704700000020AD
:104B800001000000000000001000000000093D00CE
:104B90000E1400080E1400080E1400080E1400086D
:104BA0000E1400080E1400080E140008FFFFFFFF8B
:104BB000FFFFFFFFD61300080E1400080E140008B4
:104BC000FFFFFFFFFFFF000030B4002512E050F8A8
:104BD000042BD30744BF4A44521E091F042942F83C
:104BE000045BFAD213468C0744BF15809B1CC9078F
:104BF00048BF1D7050F8041B0029E8D130BC704735
:104C0000A0860100400D0300801A060000350C004C
:104C100040420F0080841E0000093D0000127A000F
:104C20000024F40000366E010048E801006CDC024C
:104C300010B5074979441831064C7C44163404E019
:104C40000A68081D114488470146A142F8D110BDE9
:104C50002C0000004C0000004EF68851CEF20001FE
:104C6000086840F470000860BFF34F8FBFF36F8F88
:104C70004FF00170E1EE100A704700004DFFFFFF9A
:104C80007407000048000020000000002BC4FFFF54
:104C900048000000ECFEFFFF0000002000000000C4
:104CA0000248016841F470010160704788ED00E03E
:104CB00000000000000000000102030406070809CC
:104CC00000F00DF8002801D0FFF7B2FFAFF300802D
:104CD0000020AFF30080FDF72BFF00F002F8012069
:104CE000704700F001B8000007463846FCF770FF37
:104CF000FBE700000548014603B4684680F30988D5
:104D0000AFF30080FFF7A8FFFFF7DAFFA5EDF5FE90
:104D10000148804701480047A14C0008F54C0008B5
:104D20000000000001020304FFF7FEBFFFF7FEBF13
:104D3000FFF7FEBFFFF7FEBFFFF7FEBFFFF7FEBFA7
:104D4000FFF7FEBFFFF7FEBFFFF7FEBFFFF7FEBF97
:104D5000FFF7FEBFFFF7FEBFFFF7FEBFFFF7FEBF87
:104D6000FFF7FEBFFFF7FEBFFFF7FEBFFFF7FEBF77
:104D7000FFF7FEBFFFF7FEBFFFF7FEBFFFF7FEBF67
:104D8000FFF7FEBFFFF7FEBFFFF7FEBFFFF7FEBF57
:104D9000FFF7FEBFFFF7FEBFFFF7FEBFFFF7FEBF47
:104DA000FFF7FEBFFFF7FEBFFFF7FEBFFFF7FEBF37
:104DB000FFF7FEBFFFF7FEBFFFF7FEBFFFF7FEBF27
:104DC000FFF7FEBFFFF7FEBFFFF7FEBFFFF7FEBF17
:104DD000FFF7FEBFFFF7FEBFFFF7FEBFFFF7FEBF07
:104DE000FFF7FEBFFFF7FEBFFFF7FEBFFFF7FEBFF7
:104DF000FFF7FEBFFFF7FEBFFFF7FEBFFFF7FEBFE7
:104E0000FFF7FEBFFFF7FEBFFFF7FEBFFFF7FEBFD6
:104E1000FFF7FEBFFFF7FEBFFFF7FEBFFFF7FEBFC6
:104E2000FFF7FEBFFFF7FEBFFFF7FEBFFFF7FEBFB6
:104E3000FFF7FEBFFFF7FEBFFFF7FEBFFFF7FEBFA6
:104E4000FFF7FEBFFFF7FEBFFFF7FEBFFFF7FEBF96
:104E5000FFF7FEBFFFF7FEBFFFF7FEBFFFF7FEBF86
:0400000508004CF5AE
:00000001FF
