:020000040800F2
:10000000E00B0020F155000821540008235400089B
:100010002554000827540008295400080000000057
:100020000000000000000000000000002B54000849
:100030002D540008000000002F540008315400081F
:10004000095600080D5600081156000815560008FC
:10005000195600081D5600082156000825560008AC
:10006000295600082D56000831560008355600085C
:10007000395600083D56000841560008455600080C
:10008000495600084D5600085156000855560008BC
:10009000595600085D56000861560008355400089E
:1000A00065560008695600086D560008715600082C
:1000B00075560008795600087D56000881560008DC
:1000C00085560008895600088D560008915600088C
:1000D00095560008995600089D560008A15600083C
:1000E00055540008A5560008A9560008AD5600084A
:1000F000B1560008B5560008B9560008BD560008AC
:10010000C1560008C5560008C9560008CD5600085B
:10011000D1560008D5560008D9560008DD5600080B
:10012000E1560008E5560008E9560008ED560008BB
:10013000F1560008F5560008F9560008FD5600086B
:100140000157000805570008095700080D57000817
:100150001157000815570008195700081D570008C7
:100160002157000825570008295700082D57000877
:10017000315700083557000800000000000000005B
:10018000395700083D5700082DE9F14FB0B09246AD
:1001900004910DF142013A9A2B9199464A70002040
:1001A0000AE01AF8011B0498309A9047002804903E
:1001B00000F06A860D98401C0D909AF8000050B12E
:1001C0002528EED1002100220791089209910A9278
:1001D0000B910C9204E00D9800F058BE41F0010123
:1001E0001AF8010F2028F9D023280CD02B2804D08E
:1001F0002D2805D0302809D00BE041F00201EFE7AF
:1002000041F00401ECE741F00801E9E741F0100199
:10021000E6E72A280FD1D9F8002052F8040BC9F8D4
:10022000002000280F9003D540420F9041F00401B8
:100230000AF1010A14E00F92DFF8583C0AE00F9827
:10024000984205DA00EB800402EB4402303A0F9248
:100250000AF1010A9AF80020A2F130000A28EED330
:100260009AF800002E2803D04FF0FF320E9229E0BA
:100270001AF8010F2A2809D1D9F8000050F8042BE8
:10028000C9F800000E920AF1010A1BE02D280CBFEC
:100290000AF1010A002000220E92DFF8F84B0BE071
:1002A00040B90E9AA24205DA02EB820503EB450340
:1002B000303B0E930AF1010A9AF80030A3F13002A4
:1002C0000A2AEDD3ADF840100FF6CC309AF80010A2
:1002D00000F00EFF08B11AF8010B8DF842009DF8EE
:1002E0004200682805D19AF8000068280CD16221E4
:1002F00006E06C2804BF9AF800006C2804D1712134
:100300008DF842100AF1010A12A806901AF801BBF2
:10031000BBF125012CD01C3900F0D681091F022920
:1003200040F2D281133900F0E184093900F0CC8128
:10033000891E00F07685491E00F02385491E02299A
:1003400040F2C281091F00F01C85491F00F0318175
:10035000491E00F0CB84491E00F0D880C91E0DD084
:10036000891E00F0C384C91E00F0C08400F064BD83
:1003700025238DF84830012100F069BDD9F800002F
:1003800050F8044BC9F80000002C059440F0AB80F5
:100390002B994878002800F0A1804FF0FF340FF629
:1003A000003000F0B5FE201A40F06E8500F050BD20
:1003B00001236A4602A9304600F042FE002840F0C0
:1003C00063856D1EF4D13096079D12AF75B1309ED6
:1003D00017F8012B02A9304600F022FE002801D4B4
:1003E0006D1EF5D10028309640F04E850A9D3020D4
:1003F000002D8DF800000CDD309E01236A4602A915
:10040000304600F01DFE002840F03E856D1EF4D100
:100410003096059F089D75B1309E17F8012B02A9F3
:10042000304600F0FDFD002801D46D1EF5D10028F6
:10043000309640F029850B9D3020002D8DF800006E
:100440000CDD309E01236A4602A9304600F0F8FD1B
:10045000002840F019856D1EF4D130960598089952
:10046000099D471875B1309E17F8012B02A9304637
:1004700000F0D6FD002801D46D1EF5D1002830967D
:1004800040F002850C9D3020002D8DF800000CDD21
:10049000309E01236A4602A9304600F0D1FD0028B3
:1004A00040F0F2846D1EF4D130969DF84000410773
:1004B0007FF583AE2020002C8DF800007FF77DAE05
:1004C000309D01236A4602A9284600F0B9FD0028A4
:1004D00040F0DA84641EF4D130956EE60FF6C03039
:1004E000059000F0B5BC0E9D002D04D5204600F00F
:1004F0002FFE044607E02A46204600F033FE00287F
:1005000014BF041B2C46089400F0A2BCD9F80010BC
:1005100051F8040BC9F8001020F00004002121F06C
:10052000FF3512ABCDE902450593DDE902230699BB
:100530003C2413B90AB90E98A0B102F00F05641E4D
:1005400030353A2D08DA12090D5542EA03721B09BB
:1005500008BF002A02D105E02735F4E705980D19F8
:10056000A842EAD308190590C4F13C020E980892FB
:1005700082420ADABDF84010821A4FF6EF7001404D
:100580000A92ADF8401000F063BC002840F160848E
:100590009DF8400000F01400102840F059840F9B93
:1005A00007990A985B1A1B1A9A1A002A40F350847A
:1005B0009AE32B99487820B14FF0FF340FF6B02022
:1005C000EFE69DF84200622860D0682817D06A28BC
:1005D0003FD06C2806D0712847D074282CD07A28B8
:1005E0001DD062E0D9F8001051F8040BC9F80010D2
:1005F000002866D14FF0FF340FF68C20D1E6D9F8F1
:10060000001051F8040BC9F8001020B94FF0FF3466
:100610000FF67420C5E60D99018000F019BCD9F8D9
:10062000001051F8040BC9F80010002849D14FF010
:10063000FF340FF65420B4E6D9F8001051F8040B3B
:10064000C9F8001000283CD14FF0FF340FF63820D5
:10065000A7E6D9F8001051F8040BC9F8001080B9CA
:100660004FF0FF340FF620209BE6D9F8001051F828
:10067000040BC9F8001020B94FF0FF340FF6082022
:100680008FE60D9AD317C0E90023E1E3D9F80010F3
:1006900051F8040BC9F8001020B94FF0FF340FF6E1
:1006A000E8107EE60D990170D2E3D9F8001051F8F8
:1006B000040BC9F8001020B94FF0FF340FF6C81032
:1006C0006FE60D990160C3E3D9F80020D21D22F036
:1006D0000702C9F80020D2E900010832C9F8002059
:1006E000CDE90201C80F02D007982D210AE0BDF81C
:1006F0004000810702D507982B2103E0C00705D5EC
:100700000798202112AA1154401C079012A807999B
:10071000DDE9024543184BF020006128059321AE26
:100720000BD00E98002802D506200E9005E001BFE0
:100730004BF02000672801210E91DDE902014800FD
:100740004015401C0A460DD109030BD0ABF16107DF
:1007500003201A2F089002D20FF648110DE00FF671
:1007600048110AE070B912030CD1ABF16107032004
:100770001A2F08901CD30FF638110322184600F0E8
:100780001DFD65E3DDE902016A4600F023FDCDE9C8
:1007900002014BF02000612811D105983021017031
:1007A000821C0592BBF1610F0CBF7821582102E039
:1007B0000FF6F801E1E741700798801C0790DDE92A
:1007C000020120F0000231F0004308BF002A02D1EC
:1007D0000025002445E14BF02008B8F1610F40F0FE
:1007E00095800E98002847BF21210191401C01905F
:1007F000019F7F1C2046294600220023DDE9024597
:1008000000F020FD38BF85F0004500998DF8842068
:10081000091F002F00910DF1850034DD06462046AA
:1008200029460022002300F027FD2BD21C2200F0D5
:100830003DFD04460D4600F0D7FDFF1F002F80460A
:1008400009DD00F0EDFD02460B462046294600F08A
:10085000B7FE04460D46F01D0721B8F1000F0CDD70
:10086000491E5EBF08F00F0200F8012D4FEA28185C
:10087000F3D502E0002200F8012D491EFAD5C61D6D
:10088000002FCCDC30460DF18501401A01990DF1A5
:10089000850605468842C8BF0D46002D2FD48542E7
:1008A00006DA0DF18500415D0829A8BF0F2000DAA6
:1008B0000020294621AA0A4400E06D1E12F80139E1
:1008C000491E8342F9D00F2804D10DF18500425C06
:1008D000521C4254002904D50098001D21AE6D1C05
:1008E0000090681E0BD431180A783032D3B23A2BFC
:1008F000A4BF5A443A3A401E01F80129F4D50E9893
:10090000002840F1AD80691E0E91A9E00099DFF842
:10091000002747F29750414391FBF2F2009225F0F5
:100920000045C2F10702002A04DD2046294600F0F6
:100930004BFB0BE052420020DFF8D81600F044FBDE
:1009400002460B462046294600F0ACFE04460D4602
:10095000B8F1660F06BF009F0A3706270E983F18AA
:10096000142FC8BF142730208DF884000DF18500A6
:1009700000E03046002F35DD06462046294600F0CF
:10098000B5FF01460A4606F1080304200A26B2FB19
:10099000F6F606EB860EA2EB4E02303203F8012C7F
:1009A0000A22B6FBF2F202EB820EA6EB4E063036BE
:1009B000401E03F8026DE9D1083F002F03F108063D
:1009C000D7DD084600F0A4FF02460B462046294624
:1009D00000F0F6FD0022DFF8403600F0A7FF0446E5
:1009E0000D46CAE70DF18501401A0DF1850604E0B8
:1009F0000099491E401E0091761C31783029F7D0AD
:100A0000B8F1660F02D10099491C04E0B8F1650FF6
:100A10000CBF012100210E9D4D19A842B8BF451EF3
:100A2000002D1DD4854204DA705D3428C8BF3920FA
:100A300000DC30202946721E531800E06D1E13F8AA
:100A40000149491E8442F9D0392802D1705C401C0A
:100A50007054002904D50098401C16466D1C009067
:100A6000009C01F039F8406A0778DDF8388028B238
:100A7000002802DC01250FF23C664BF020006628BE
:100A800008BF641C16D0672846D120B210F1040FAD
:100A900048DB404546DA9DF84000641C010703D45A
:100AA00028B24045D8BF804620B2B8EB000848BF06
:100AB0004FF000080FFA84FBBBF1000F00F3B58084
:100AC0000898411C0891302205990A54B8F1000F8A
:100AD00003DC9DF84000010704D50898411C0891EB
:100AE00005990F5418EB0B0FB8BFC8F1000424B2DE
:100AF0006042A0442AB20B909045B8BF4546059B82
:100B000008982DB209952A463146184400F056FB44
:100B1000A8EB05000C90D2E0BBF1610F17D14FF0AC
:100B2000700B19E028B2404504DA9DF840100A071E
:100B300058BF8046B8F1010848BF4FF00008BBF12C
:100B4000670F14BF4FF0450B4FF0650B04E0BBF18E
:100B5000410F08BF4FF0500B0898411C0891B8F1A5
:100B6000000F059916F8012B0A5403DC9DF840008C
:100B700001071AD50898411C0891B8F1000F059992
:100B80000F5412DD6D1E28B28045B8BF454605984A
:100B9000089B2AB23146184400F010FB08992DB288
:100BA00069180891A8EB05000B900598089908446E
:100BB00021B2002980F800B003D42B224270821C9D
:100BC00004E02D2242700C46821C644200212CABB2
:100BD00020460AE004460A2094FBF0F000EB800572
:100BE000A4EB450403F8014B491C00B20028F1DCDA
:100BF000012906DC4BF02000652804BF302002F8F4
:100C0000010B00292CAB08D1302002F8010B06E0C3
:100C1000491E585C303002F8010B0029F8DC0599B8
:100C200008980844121A099249E028B221B2884271
:100C30001CDA0598089B2AB23146184400F0BEFA27
:100C400008992DB269180891ABEB0500B8F1000FB7
:100C50000B9003DC9DF84000020704D5059847542B
:100C60000999491C0991CDF8308028E00598089B26
:100C700022B23146184400F0A1FA08982D1B5844BE
:100C8000B8F1000F089003DC9DF840100A0703D567
:100C9000411C089105990F5428B28045B8BF4546BC
:100CA0000598089B2AB206EB0B01184400F086FA5F
:100CB00008982DB228180890A8EB05000B909DF815
:100CC000400000F01400102840F0C280079A0899F4
:100CD0000B988A18099982180C988A1882180F980C
:100CE000824280F2B580821A0A92B1E09DF84200F9
:100CF000622808D068280ED06A2814D06C281FD02B
:100D0000712810D01CE0D9F8001051F8040BC9F874
:100D10000010C0B21AE0D9F8001051F8040BC9F85D
:100D2000001080B212E0D9F80020D21D22F0070294
:100D3000C9F80020D2E900010832C9F8002006E015
:100D4000D9F8001051F8040BC9F800100021CDE9C2
:100D500002019DF8400001075AD5DDE90223002B6E
:100D600008BF002A54D04BF02000782850D10798B3
:100D700012A930220A54401C431C079301F800B00A
:100D800046E09DF84200622808D068280ED06A2804
:100D900014D06C281FD0712810D01CE0D9F8001096
:100DA00051F8040BC9F8001040B21AE0D9F800104D
:100DB00051F8040BC9F8001000B212E0D9F8002075
:100DC000D21D22F00702C9F80020D2E90001083242
:100DD000C9F8002006E0D9F8001051F8040BC9F852
:100DE0000010C117CDE90201002902D507982D2175
:100DF0000AE0BDF84000810702D507982B2103E0E7
:100E0000C00705D50798202112AA1154401C07904D
:100E100012A807990144059102A8594600F04EF81E
:100E200016E001200790D9F8000050F8041BC9F81B
:100E300000008DF848100BE025210122BBF1000FC6
:100E40008DF84810079203D08DF849B00221079120
:100E50000F9A07980A990C9C121A0898521A0B9923
:100E6000121A0998521A121A9DF84000141B4107D1
:100E70003FF5AAAA2020002C8DF800007FF7A4AA35
:100E8000309E2546FFF794BA4FF0FF3031B0BDE8F1
:100E9000F08F0000CBCCCC0C686A6C747A4C0000EC
:100EA0007072696E74665F733A20626164202573A4
:100EB00020617267756D656E740000002DE9FC435A
:100EC00004466F29256908BF082605D041F0200097
:100ED000782814BF0A261026D4E900233C27904620
:100EE0009946642918BF692905D1002B03D5D8F18B
:100EF000000869EB4909B9F1000F08BFB8F1000F0C
:100F00000CD1206B50B9082E3AD194F83800010763
:100F100036D530203B2785F83B0031E08DF80010B6
:100F2000404649463246F31700F0DAFD3032D0B27F
:100F30007F1E3A2801970EDAEA5540464946324666
:100F4000F31700F0CDFD80465FEA010908BFB8F154
:100F5000000F05D108E09DF800001218513AEBE7A8
:100F6000E068E9198842DBD3082E09D194F83800EB
:100F7000010705D5E85D302802D07F1E3020E855F6
:100F8000C7F13C02A261E919E160206B824208DAF4
:100F9000821A22624FF6EF70218F01402187BDE84F
:100FA000F38300280ED594F8380000F014001028C0
:100FB00008D1636B6169206A5B1A1B1A9A1A002AAE
:100FC000C8BF2262BDE8F3832DE9D04306460F4631
:100FD00014464FF00008DFF8449012E0E00707D510
:100FE00042464B463046394600F0A0FC06460F46C6
:100FF0004046494642464B4600F098FC6410804605
:101000008946002CEAD130463946BDE8D08300003D
:10101000A08601000000F03F84D7974100002440E3
:1010200010B503460C461146A0689847A06020B151
:10103000E06A401CE062002010BD4FF0FF3010BDA0
:10104000F8B505460E4617461C4600205CB117F859
:10105000011BB068A847B06030B1F06A401CF06274
:101060000020641EF3D1F2BD4FF0FF30F2BD00004E
:101070007072696E74665F733A20256E20646973BE
:10108000616C6C6F776564007072696E74663A208B
:1010900062616420256E20617267756D656E7400F3
:1010A000000000006E616E004E414E00696E6600E9
:1010B000494E4600300030B50168846842184168E6
:1010C00002EB5103C90703D54C4401E0491C08D188
:1010D0009A4218BF12F9011B01D10C3030BD12F831
:1010E000015B002904F8015BF0D4491EF7D5EFE756
:1010F000C9B202788A421AB11CBF10F8012FF9E771
:1011000018BF002070470268531C036011707047BD
:1011100080B500B906A005490B681BB12222002149
:10112000984701E000F05FFD222002BDD8070020B3
:10113000636F6E73747261696E742068616E646C43
:1011400065723A20626164206D6573736167650042
:1011500000F1010310F8011B11B110F8011BFBE7AE
:10116000C01A7047C9B2830706D0521E22D310F8A6
:10117000013B9942F7D11FE0083A13D302F1040270
:1011800041EA012141EA014150F8043B121F21BF0D
:101190004B40A3F1013C2CEA030C1CF0803FF3D040
:1011A000C9B2001F083210F8013B521E28BF91EA55
:1011B000030FF8D818BF0120401E70474AB1000045
:1011C00011F8013B521E00F8013B1CBF11F8013B16
:1011D000F8E7704710B5144600F002F8226010BD21
:1011E000C1F30A5343B14A0012F5001F28D2A3F2FB
:1011F000FE32A1EB0251704750EA410C20D001F0C1
:10120000004C31EA0C01B1FA81F204BFB0FA80F36C
:10121000D2180B3AB2F120032CBF00FA03F191402F
:1012200041EA0C013EBFC2F1200C20FA0CF3194335
:101230009040524240F2FD33D21A01EB0351704705
:101240000022704741EA030C50EA4C0C52EA0C0CA5
:101250004FF4001C09D307D01CEB410F9CBF1CEBC3
:10126000430F8B4208BF824270471CEB430FFBD8F1
:10127000994208BF9042704741EA030C50EA4C0C77
:1012800052EA0C0C4FF4001C09D307D01CEB410FA1
:101290009CBF1CEB430F994208BF904270471CEB68
:1012A000410FFBD88B4208BF82427047124254D490
:1012B00040F2FF7C1CEA11530FD0634531D09B18DC
:1012C00063453CBF01EB0251704701F0004141EA28
:1012D0000C510020AFF30080704750EA410320D04A
:1012E00001F0004C91EA0C011CD0B1FA81F30B3BE8
:1012F0009A420DD9D21A994051EA0C01C3F1200C3F
:1013000020FA0CFC61449840531C40F2FF7CD7E764
:10131000914041EA0C01C2F1200C20FA0CF3194370
:1013200090407047B0FA80F31533202BE0D3202A89
:10133000EED3203A203B9A4209D9D21A00FA03F19F
:1013400041EA0C010020531C40F2FF7CB8E700FA90
:1013500002F141EA0C0100207047524240F2FF7C4A
:101360001CEA11530DD06345DBD0B2EB030C3CBF3C
:10137000A1EB025170470CF1010221EA035141F443
:10138000801150EA410CCCD001F0004C352A27DC0A
:1013900030B481EA0C01B2F1200309DAC2F1200372
:1013A000044601FA03F5D0402843D1409C400CE0AC
:1013B000C3F12002450020FA03F418BF44F00104F1
:1013C00021FA03F091400C43002174F1004550F1E3
:1013D000000051EB0C01244230BC7FF47BAF70471E
:1013E0006146002076E72E00C1F30A5340F21E4208
:1013F000D31A0CDDCA0283F3070342EA505242F0CB
:101400000042DA4002EBE17282EAE17070476FEA73
:10141000E17203F2E13008B182F000407047000051
:1014200010F0004160B148BF4042B0FA80F29040F5
:10143000D21CC2F5846241EA025202EBD02140057F
:101440007047000070B491EA030F4FF0004540F17F
:10145000BF806B40841A71EB030604D26E40001B00
:10146000B141121973414FF4001C1CEB410F34BF02
:101470007CEB430683E00C0DA4EB1356362E00F3F1
:101480007C80012E45EAC32341DC43EA525312BF5C
:10149000D20292025B08240545EAC12141EA50517B
:1014A000D2EBC020994125D407D1B0FA80F610FACA
:1014B00006F162D00020203608E0B1FA81F6B14092
:1014C000C6F1200220FA02F21143B0404FEAF47450
:1014D000B4EB465434F001064FEA74040AD8D6F54A
:1014E0000016760D04F00044F04061FA06F2504018
:1014F000F1404840C00A40EA415021F0004128BF75
:101500005FEA500550F1000044EBD12135E0DB0AE1
:1015100045EAC121C90AB6F120050EDD42EA0242C0
:10152000120CC5F1200603FA06F6EB4042EA060566
:101530006D42984161F100010DE062FA06F5F2405A
:10154000554063FA06FC82EA0C02F3405A406D42B1
:10155000904161EB030111F4801F05D1641E620507
:1015600002D06D004041494121F48011430875F1DA
:10157000004350F1000041EB045170BC70471CEB7C
:10158000410F15D223F0004352EA43060BD04FEA35
:101590004C0CBCEB410F04D80C0D661E342EB7DD8D
:1015A000EBE7801A994150EA410608BF0021E4E7C1
:1015B00008BF1CEB430F28BF6FF00001DDE7000000
:1015C00070B491EA030F4FF000457FF543AF6B40D5
:1015D000841A71EB030603D2001BB1411219734147
:1015E0004FF4001C1CEB410F34BF7CEB430442E082
:1015F0000C0DA4EB1356352E4FDC45EAC323DB0A52
:1016000045EAC121C912B6F120050DDD63FA05F6E0
:10161000EB4086EA0305124218BF45F00105C018E9
:1016200051F100010CD213E062FA06F5F240554088
:10163000F3415A40B340F3405A408018594107D310
:1016400049085FEA30005FEA350528BF45F001052B
:1016500001F58011420875F1004250F1000041EBA4
:1016600004514E0016F5001F70BC38BF70470020B3
:10167000090D090570471CEB410F10D252EA4306D1
:101680000BD0BCEB410F05D80C0DAB43661E342EBE
:10169000B6DD02E0AB438018594170BC704770BCA6
:1016A00070470000F0B540F2FF7581EA030C0CF0C2
:1016B000004C15EA11541DBF15EA1357AC42AF4256
:1016C000E5E0BC41C1F31301C3F31303801A994150
:1016D00043F4801304D2641E001849418018594114
:1016E000C90241EA5051B1FBF3F603FB1611A2FB0C
:1016F0000675D7EBC020A94102D2761E8018594149
:10170000C90241EA5051B1FBF3FE03FB1E11A2FBDB
:101710000E75D7EBC020A94103D2AEF1010E80189F
:101720005941890241EA9051760546EA8E2EB1FB75
:10173000F3F603FB1611A2FB0675D7EB8020A94137
:1017400002D2761E80185941C90241EA50514EEA30
:10175000060EB1FBF3F603FB1611A2FB0675D7EBE1
:10176000C020A94102D2761E80185941C90241EA1F
:101770005051B1FBF3F703FB1711A2FB0735D3EB75
:10178000C020A94167F100070CBF004247F00107E4
:1017900066F3D5274FEA1E31B80814F5806412DDD0
:1017A000BD0775F1004250EB0E5051EB045111F59D
:1017B000801F5CBF41EA0C01F0BD4CF07F6141F03D
:1017C000E0410020F0BDBD076D0840EA0E5041F435
:1017D0008011D4F10104B4F120060ADAC4F1200624
:1017E0000200E04001FA06F3E1401843B24015431D
:1017F0000EE0342C13DCC6F1200445EA40056D08E8
:1018000020FA06F2154321FA06F0A1400D4300210B
:1018100075F1004250F1000051EB0C01F0BD0020C9
:101820005FEA0C01F0BDCFB992185B41B3FA83F7C0
:1018300004BFB2FA82F6BF190B3FB7F120062FBFE3
:1018400002FA06F3BB40C7F1200622FA06F638BFBB
:101850003343BA401CB1E419641E33E77F4231F0D0
:101860000041B1FA81F404BFB0FA80F6A4190B3C30
:10187000B4F120062FBF00FA06F1A140C4F1200602
:1018800020FA06F638BF3143A0403C1B1AE7AC42B1
:101890001ABF05EA1357AF4212E050EA41061CBFD7
:1018A00052EA4306BFE750EA4107304661461CBF93
:1018B00041EA0551F0BD52EA430C08BFC143F0BDF7
:1018C00000204FF4001616EB410F98BF16EB430FA4
:1018D00008BF16EB410F24BFC14305E016EB430FD1
:1018E0000CBF61464CEA0551F0BD0000400D40F2CE
:1018F0001E4C40EAC120BCEB115C40F0004003D418
:101900008CF30701C84070476FEAE1707047000030
:1019100050B1B0FA80F18840C91CC1F58461090555
:1019200001EBD021400570470146704730B540F2C9
:10193000FF7C1CEA11541DBF1CEA13556445654524
:101940003FE0641981EA030C6FF35F530CF0004C25
:1019500043F48013C90241F0004141EA505EC502E0
:101960001100A5FB020200284FF00000EEFB012051
:101970004FF00001E3FB052118BF42F001024018BF
:1019800000214941E3FB0E01A4F580640D0302D25E
:1019900092184041494154F1010470DD450872F14B
:1019A000004250F1000051EB0451A1F5801102D426
:1019B00041EA0C0130BD40F2FF7E4CEA0E5100209E
:1019C00030BD0CEA1355644518BF654581EA030C28
:1019D0000CF0004C41D050EA410E1CBF52EA430EBD
:1019E00002E06146002030BD24422C441BD15FEA56
:1019F000050EF6D0090302BF01460020AEF1140E19
:101A0000B1FA81F5AEEB050401FA05FE0C35C5F11E
:101A1000200100FA05F5C8404EEA000E6FF35F534F
:101A200043F480139CE733F00043B3FA83F504BF1B
:101A3000B2FA82FE75440B3D641BB5F1200E2FBF38
:101A400002FA0EF3AB40C5F1200E22FA0EFE38BFAB
:101A500043EA0E03AA40641C7CE750EA410E14BF1F
:101A600052EA430E6FF000014FF4001515EB430FDF
:101A70008EBF194615EB410F9DE7B4D830BDD4F1A8
:101A80000104B4F120050FDAC4F12005520828BF83
:101A900042F0010210FA05FE01FA05F57244E2BFB8
:101AA000E0402843E1400FE0352C9ADCC5F12004EA
:101AB00052EA400220FA05F218BF42F0010231FA60
:101AC00005F0A1400A43002172F1004250F10000EC
:101AD00051EB0C0130BD0000004870473000002081
:101AE000D3BBD9B1B2F5803F5BD2022A1ED98C4656
:101AF000B1FBF2F102FB11C31B0443EA1043B3FB39
:101B0000F2FC02FB1C3380B240EA0343B3FBF2F069
:101B100002FB103240EA0C4000237047022A05D92C
:101B20008446B0FBF2F002FB10C270474AB105D107
:101B300000F0010249085FEA3000704700220023EC
:101B4000704700F053B80B000200002100207047DE
:101B5000F7D3002200237047904271EB030CF2D3BD
:101B600070B5B1FA81F4B3FA83F52C1BA340C4F12C
:101B7000200532FA05F63343A2405FF00046E64006
:101B800002E05B085FEA3202841A71EB030524BFAE
:101B9000204629467641F4D302000B003000002194
:101BA00070BD70B5B1FA81F4B2FA82F5C4F12004C7
:101BB0006419B4F12006DAD3B2405FF00044F44077
:101BC000002502E052085FEA3303C61A71EB020EE9
:101BD00024BF3046714664416D41F3D302000B00CF
:101BE0002000290070BD012000F002B870470000FD
:101BF00080B5AFF30080024A11001820ABBEFBE7AE
:101C0000260002002DE9FC47050066D0DFF8A87623
:101C1000DFF8B466BC68D7F80C802878C10604F0F9
:101C20000C0408F0030848D524B10C2C08BFB8F107
:101C3000010F2CD13868810702D5A86900284CD043
:101C4000396808074EBF396871680909286A01F0C8
:101C5000F001814206D200F0F4FA00283DD100F0F4
:101C6000E3F907E000F0E0F924B9286A00F0E9FAA6
:101C7000002832D100F088FABA6800F074FADFF870
:101C80004006006800F038FB010016D0C6E1A869E4
:101C900028B3396841F00101396000F04FFB8146FB
:101CA0003868810707D400F049FBA0EB090003283E
:101CB000F6D30320B2E100F0B7F92878C10755D573
:101CC000082C04D00C2C08BFB8F1030F17D13868CA
:101CD00081034BD56868002848D101209EE138680F
:101CE0004008400000F0B5F9814638688107E4D526
:101CF00000F024FBA0EB09000328F6D3D9E76868BD
:101D0000B0F5803F04D1386840F48030386011E08D
:101D1000B0F5A02F386806D140F4802038603968CB
:101D200041F4803105E020F480303860396821F4D6
:101D300080213960686860B100F000FB8146386836
:101D4000810313D400F0FAFAA0EB09006528F6D35A
:101D5000AFE700F0F3FA81463868810306D500F05A
:101D6000EDFAA0EB09006528F6D3A2E728788107F1
:101D700013D5042C04D00C2C08BFB8F1020F22D1CB
:101D80003868410502D5E8680028A6D07868296936
:101D900020F0F85040EA016078602878010742D5C9
:101DA0006869002870682FD040F00100706000F072
:101DB000C5FA80467068810735D400F0BFFA00F09C
:101DC0002FF9F7D375E7E86878B1396841F4807185
:101DD000396000F0B3FA804638684105D6D400F087
:101DE000ADFA00F01DF9F7D363E7386820F480708E
:101DF00000F02FF9804638684105CED500F09EFAF4
:101E000000F00EF9F7D354E740084000706000F08E
:101E100095FA80467068810705D500F08FFA00F0CA
:101E2000FFF8F7D345E72878410767D5B86DC100BB
:101E30004FF000080AD4B86D40F08050B8654FF0FC
:101E40000108B86D00F0805000900098DFF87C9495
:101E5000D9F80000C10513D4D9F8000040F480700F
:101E6000C9F8000000F06AFA8246D9F80000C105FE
:101E700006D400F063FAA0EB0A000328F5D318E7B4
:101E8000A868012804D1306840F00100306010E0FB
:101E90000528306806D140F004003060316841F018
:101EA000010105E0400840003060316821F0040184
:101EB0003160A86841F2893960B100F03FFA82468A
:101EC0003068810713D400F039FAA0EB0A004845C6
:101ED000F6D3EEE600F032FA82463068810706D586
:101EE00000F02CFAA0EB0A004845F6D3E1E6B8F181
:101EF000000F03D0B86D20F08050B865A86A0028A4
:101F000000F08B80022874D1F868EA6A00F00301BF
:101F1000914201BF00F070012A6B521EB1EB021F0B
:101F20001ED16A6B00F4FE41B1EB022F18D1A96BF0
:101F300007290CBF0021012100F400328A420FD191
:101F4000EA6B520800F4C001521EB1EB425F07D1A8
:101F5000296C490800F0C060491EB0EB416F44D0C5
:101F60000C2C47D03868410101D43868C1003FF5D6
:101F7000B4AE00F06BF804463868810105D500F076
:101F8000DDF9001B0328F7D393E6F868DFF8401368
:101F9000EA6A0840296B1043491E40EA0110EA6BC7
:101FA000696B520840EA0120296C521E490840EA38
:101FB0004250491E40EA4160A96B090940EA41408C
:101FC000F860386840F080703860F96841F08071DE
:101FD000F96000F0B3F90446386881011DD400F0BF
:101FE000ADF9001B0328F7D363E63868810114D4E8
:101FF000E7E70C2C3FF471AE00F028F8044638688F
:10200000810105D500F09AF9001B0328F7D350E6AB
:10201000F868DFF8C0120840F8600020BDE8F687D5
:10202000A0EB080003287047386840F008003860CB
:102030003968286A21F0F001014339607968E8695C
:1020400021F47F4141EA002179607047386820F02F
:102050008070386000F072B92DE9F04104008846C4
:1020600055D0DFF87462306800F00700404502D2B6
:1020700000F06FF84BD12078DFF83C52810706D58D
:10208000A068A96801F0F001814200F076F820789C
:10209000C1072AD56068032802D129688A0108E0AF
:1020A000022802D129688A0303E00028296802D1A6
:1020B0008A0702D42BE04A0529D5A968890840EA95
:1020C0008100A86000F03AF90746A868616800F04E
:1020D0000C00B0EB810F08D000F030F9C01B41F2CA
:1020E00089318842F1D3032031E02078810706D579
:1020F000A068A96801F0F001884200F03EF830685D
:1021000000F00700804504D200F023F801D0012040
:102110001DE02078410705D5AA68E06822F4E06256
:102120000243AA602178080706D5A968206921F42E
:10213000605141EAC001A96000F026F8AA6800F0E9
:1021400012F8BDE8F0415E48006800F0D5B8BDE87F
:10215000F0813168C90848EAC1013160306800F097
:102160000700404570475D49C2F30312895C534A3A
:1021700001F01F01C8401060704704D2A96821F027
:10218000F0010843A860704770B54B4A554B906802
:10219000D6680025002110F00C0006F00306524C12
:1021A00003D00C2812D1012E1AD115682E0704D4A1
:1021B000444D2E68C6F3032502E01568C5F30315E8
:1021C0004A4E56F8255048B9294624E0042808BF4D
:1021D000214620D008281ED119461CE00C281AD10F
:1021E000D06800F00300022803D0032808BF1D4672
:1021F00000E02546D168D068D268C0F30620454388
:10220000C1F30210C2F34161401C491CB5FBF0F060
:102210004900B0FBF1F1084670BD2848304A00681B
:1022200013683349C3F3022206E024482C4A0068AD
:1022300013682F49C3F3C222895C01F01F01C84013
:1022400070477CB52B4E054630680024C10002D58E
:1022500000F07AF80EE0306840F08050306031686D
:1022600001F080510091009800F06EF8316821F083
:1022700080513160B0F5007F04D1802D0CD9A12DA3
:1022800009D304E0802D88BF032405D801D102249E
:1022900002E0702D00D101240F480168C90844EA0A
:1022A000C1010160006800F00700A04201D00120D8
:1022B00076BD002076BD0000001002402C000020FA
:1022C000080000209410024090100240007000406E
:1022D0008C809DF9FCFFEEFE002002409055000826
:1022E0000810024000127A000024F400E4540008B0
:1022F000005600085810024070B50E4E0446307863
:102300000025A0B14FF47A710B4AB1FBF0F11068CF
:10231000B0FBF1F000F0A3F848B9102C07D200226E
:1023200021464FF0FF3000F071F8B46000E0012565
:10233000284670BD000000202C00002001484068A5
:10234000704700BF00000020DFF87C00006800F448
:10235000C060704710B5DFF87010B0F5007F0868F6
:1023600000F4C0601DD1B0F5007F22D00A68DFF80C
:102370005C30012060F34A220A6032201C68DFF8DA
:1023800050204443B4FBF2F0401C00E0401E4A6978
:10239000530501D50028F9D14869410509D5032025
:1023A00010BDB0F5806F04D00A68022060F34A22A5
:1023B0000A60002010BDDFF81C00FFE7016841F44F
:1023C0008061016070470000007000402C00002018
:1023D00040420F00047000400901020002D42A4864
:1023E00081547047294B02F00F021A4402F8041C72
:1023F0007047274B19684FF6FF020002114000F4A6
:10240000E0600843234908431860704770B5204BCB
:102410001C68C4F302230124C3F10705052D2EBF58
:102420000F2504FA05F56D1E1E1D072E34BF00236F
:10243000DB1E2940994004FA03F3BDE870405B1E9F
:102440001A401143C8E70000010007D4012200F040
:102450001F01114B8A40400943F82020704710B5F6
:10246000401EB0F1807F01D3012010BD0B4C606095
:102470000F214FF0FF30FFF7AFFF0021A1600720D1
:102480002060002010BD000000E400E018ED00E036
:102490000CED00E00000FA0500E100E010E000E0D3
:1024A00038B5040001D1012032BD04F1400568783F
:1024B00020B900212970204600F003FB00F041F80C
:1024C0006068216820F0706008612068816821F4EC
:1024D00000418160E0680128A0680CBF40F4004022
:1024E00040F4044021688860E068022803D1206835
:1024F0004FF4006141602068416841F0007141F48F
:10250000004141602068C16821F40041C1606069F8
:102510002169A2690143206841EA0221C160206A61
:10252000E1692268014311602068016841F00101FE
:102530000160002068602021697020630021A9707B
:1025400032BD242068702068016849084900016094
:10255000704700904FF08073FF22704700904FF05B
:102560000073D2B270478146CDF800901923012242
:102570004FF40041304600F07DB92DE9F84F00F0EE
:1025800053F960D10A9D002D1CBF0B9F002F03D172
:102590004FF40071616054E02078012853D001218C
:1025A0002170FFF7CBFEFFF7DEFF002849D1212085
:1025B00000F043F94FF0807300F064F80C994A463C
:1025C00000F05DF858B9BBF1010F02D000F051F8EE
:1025D00028B900F00BF9802100F05DF810B100205F
:1025E00020702EE0708DFF25B0F5807F05D300F0C0
:1025F00065F800F04CF80C9F02E000F057F8F8E79F
:102600004A46394600F03BF800281AD100F022F87B
:1026100078B189B269B900F041F8002811D100F011
:1026200015F802D300F04AF801E000F03FF800F09E
:102630002EF8708D0028E3D100F0E2F800F045F8A4
:1026400002D0012000E00220BDE8F28F708DB0F5CD
:10265000807F7047706A326801789162706A411CAD
:102660007162708D411E7185308D411E3185708D76
:10267000704731684FEA1A2088624A460C99304602
:1026800000F019B9DFF8C41100915FFA8BF24146EE
:10269000304600F0D7B9304600F0ECB8CDF80090E5
:1026A0003B4600228021304600F0E4B8728D32852E
:1026B000002000904FF00073D2B2704735850020A3
:1026C00000904FF08073FF22704701000DD13268F7
:1026D0002020D0613268DFF87C01536803405360EA
:1026E000202262700020A0702070080070472DE941
:1026F000F84F00F099F876D10A9D002D1CBF0B9F72
:10270000002F03D14FF4007161606AE02078012846
:1027100069D001212170FFF711FE8146306881697F
:1027200008040ED5FFF70AFEA0EB09001A28F5D31E
:10273000606840F020006060202161700020A0707F
:1027400017E0222000F079F80023FFF79BFF0C9997
:102750004A46FFF794FF58B9BBF1010F02D0FFF7CB
:1027600088FF28B900F042F84021FFF794FF10B12C
:102770000020207035E0718D3548FF25B1F5807F50
:1027800006D33585FFF7E5FEFFF781FF0C9F04E0D8
:10279000728D3285FFF7E2FEF6E7CDF800903B46FA
:1027A00000220421FFF777FF00281AD100F02DF84E
:1027B00078B189B269B9FFF771FF002811D1FFF72D
:1027C00045FF02D3FFF77AFF01E0FFF76FFFFFF746
:1027D0005EFF708D0028E0D100F012F8FFF775FF62
:1027E00002D0012000E00220BDE8F28F30685FFADD
:1027F0008AFAC0F828A0CDF8009000220C9B704700
:102800004A463946304600F07EB83068416A706A00
:102810000170716A308D4A1C411E72623185708D63
:10282000421E7285708D7047064606F14004884648
:102830006078202892469B46704760704021A170C6
:1028400000206060756277857063704700200080AB
:102850000024008000E800FE006881698A0744BF08
:10286000002181628169CA0703D4816941F00101B5
:10287000816170472DE9F041069F05460E4690465E
:102880001C46286881693140B1420CBF01200020FC
:1028900040450DD114F1010FF3D0FFF74FFDC01BE0
:1028A000844201D3002CECD100F021F8012000E09B
:1028B0000020BDE8F08170B505460C461646286834
:1028C0008169880711D400F038F808B1012070BD83
:1028D00014F1010FF3D0FFF731FD801B844201D3C7
:1028E000002CECD100F003F8F0E7002070BD05F1FA
:1028F00040002022416841F02001416042700021E7
:1029000081700170704770B505460C461646286800
:10291000816988060FD400F010F838B9FFF70EFD72
:10292000801B844204D3002CF1D101E0012070BD52
:10293000FFF7DDFFFAE7002070BD3246214628464A
:10294000FFE72DE9F8430746894638688169002486
:102950000025C906904607F140063ED51022C26107
:10296000386881698A0633D4210031D119F1010F09
:10297000F6D0FFF7E3FCA0EB0800814502D3B9F1E4
:10298000000FEDD138684168B27883691B040AD51D
:10299000490408D4202A06D0416841F480414160AE
:1029A000FFF7CCFC8046386881698806D8D4FFF7E9
:1029B000C5FCA0EB08001A28F5D3706840F0200091
:1029C0007060202171700020B07030700124EAE73F
:1029D0000CB92021C1610425012438688169CA0528
:1029E00005D54FF4807345F00105C3610124480506
:1029F00006D538684FF4806245F00805C2610124AD
:102A0000880507D538684FF4007145F00205C161AB
:102A1000012401E020000DD03846FFF71DFF396882
:102A200000F00BF8202071680D4375607070002174
:102A3000B17031702046BDE8F2830C484A6802400C
:102A40004A60704770B50068049C4568084EC1F341
:102A5000090141EA0241194346EA54562143B5436C
:102A600021F000412943416070BD000000E800FEF4
:102A7000FF63FF0310B53E4C3E48206040F61461F2
:102A800001200022E0606160A26022616261A261B7
:102A9000E26122622046FFF703FD08B100F0EEF884
:102AA0000021204600F0F6F808B100F0E7F8002118
:102AB000204600F004F918B1BDE8104000F0DEB87F
:102AC00010BD10B5A8B004461422002101A800F0E2
:102AD00020F98822002106A800F01BF9206825496A
:102AE00088422BD18022002106921B9106A800F07B
:102AF0001BF908B100F0C2F81F4C206840F002003A
:102B000020601222216801F0020100914FF440611F
:102B100000981A4801910292012103910322042195
:102B20000591049201A900F0A7FBE06840F4800041
:102B3000E060E06800F480000090009828B010BDCC
:102B400000680C49884200D0704710B50C480B4C07
:102B5000026822F4800202604FF48061204600F097
:102B60007AFC2046BDE810404FF4006100F073BCD1
:102B7000E0060020005800404C10024000040048CD
:102B80005810024080B500F01BFD00F003F800F083
:102B900046FDFCE780B596B04422002105A800F070
:102BA000B8F814220021684600F0B3F84FF4007022
:102BB000FFF7D0FB08B100F061F800F04DFD2C48A4
:102BC000016821F0180101601422059201216022A0
:102BD00007910B910D92002101220C9110921192FC
:102BE000022128220F91129207210222139114929E
:102BF000159205A8FFF706F808B172B6FEE70F2098
:102C00000321009001910022029203920492042178
:102C10006846FFF721FA08B172B6FEE700F020FA25
:102C200017B000BD80B500F01FFD00F073FEFFF788
:102C300021FF00F0D9FE00F027FF00F091FF00F027
:102C400097FF01F021F801F0C2F8BDE8014001F062
:102C5000F5B9000080B500BF09A001F06BFA054886
:102C6000FFF76EFFBDE80240034801F0DDBA000047
:102C700090100240E00600207C06002072B6FEE7BD
:102C8000456E746572696E6720536C656570204D82
:102C90006F64650030B500F140025378202B0CD1F1
:102CA0001478012C09D000F01DF824F480541C6025
:102CB00003681D682943196020E0022030BD30B54B
:102CC00000F140025378202B0AD11478012C07D050
:102CD00000F008F824F4706444EA01241C600DE05C
:102CE000022030BD012313702424547003681D6832
:102CF0006D086D001D6003681C68704700680168FE
:102D000041F001010160202050700021117000206D
:102D100030BD10B5044610460A460146204601F073
:102D20009FFA204610BD00002DE9FC47064600240E
:102D30003068DFF820740105A04621D5706E70B1AF
:102D4000B0F5800F17D0B0F5000F03D0B0F5400FED
:102D500009D013E03A6842F480323A6004E000217E
:102D600000F07CF9044654B9F96F706E21F440010B
:102D70000143F96704E000F06BF9F3E70124A04692
:102D80003068C10421D5B06EA8B1B0F1807F17D0F2
:102D9000B0F1007F03D0B0F1407F04D013E0396878
:102DA00041F4803139607CB9F96FB06E21F0407127
:102DB0000143F96709E0002100F050F90446F2E709
:102DC00000F046F9FAE70124A046306881032BD5CC
:102DD000F86CC1004FF000090AD4F86C40F0805044
:102DE000F8644FF00109F86C00F0805000900098F2
:102DF000DFF83454286840F480702860FFF79EFAAA
:102E000082462868C10500F18280FFF797FAA0EB9F
:102E10000A000328F5D30324A046B9F1000F03D01C
:102E2000F86C20F08050F8643078C10705D5FA6F4F
:102E3000B06B920840EA8202FA673178880705D5BC
:102E4000F96FF06B21F00C010143F9673178480705
:102E500005D5F96F306C21F030010143F967317805
:102E6000080705D5F96F706C21F0C0010143F967BF
:102E70003178C80605D5F96FB06C21F44071014373
:102E8000F9673178880605D5F96FF06C21F4406157
:102E90000143F9673168880505D5F96FF06D21F4B4
:102EA00040210143F9673168480505D5F96F306E57
:102EB00021F440110143F9673178480605D5F96FCF
:102EC000306D21F440510143F9673178080605D58A
:102ED000F96F706D21F440410143F9673168C8050D
:102EE00005D5F96FB06D21F440310143F9673168C0
:102EF000880446D5F96FF06E21F040610143F9670F
:102F0000F06EB0F1006F34D100F09DF839E0002C84
:102F100082D1DFF85043206810F440701CBFD6F80F
:102F2000841088420BD02068216841F480312160F0
:102F300020F44070226822F4803222602060C007B2
:102F40000FD5FFF7FBF905462068810709D4FFF785
:102F5000F5F9401B41F289318842F5D34FF003085F
:102F60005BE72168D6F8840021F4407101432160B9
:102F700053E7B0F1806F04D100F06FF8010018BF83
:102F800080463068010314D5FA6F306F22F040623A
:102F90000243FA67306FB0F1006F02D100F053F8CE
:102FA00007E0B0F1806F04D100F057F8010018BFBE
:102FB00080463068410314D5FA6F706F22F040628A
:102FC0000243FA67706FB0F1006F02D100F03BF876
:102FD00007E0B0F1806F04D100F03FF8010018BFA6
:102FE00080463068410418D5FA6FB06F22F0405225
:102FF0000243FA67B06FB0F1805F03D1022100F0A5
:103000002DF807E0B0F1005F07D1022106F12000A2
:1030100000F0A2F8010018BF80463068010405D511
:10302000FA6FF06F22F080420243FA673168C803FA
:1030300006D5F96FD6F8800021F000410143F96709
:103040004046BDE8F687386840F480103860704725
:10305000002106F1200000F07FB80121301D05E0BD
:103060008148016841F00401016070472DE9F04199
:1030700005467D4F28680C46F968002611F0030FBD
:103080000DD0F96801F00301814231D180B3F868B5
:103090006968C0F30210401C88420ED028E0012865
:1030A00004D025D303281DD018D321E03A68910716
:1030B0001ED5FA68696800F0C9F8386820F08060A9
:1030C00000F0CCF880463868010113D5FFF736F9D7
:1030D000A0EB08000328F6D3032637E039684A0539
:1030E000E7D405E039688A03E3D439684A03E0D4B9
:1030F00001262BE0A9682CB93A695C48EB6800F01E
:1031000095F80FE0012C3A6909D12B695848024023
:103110005B0842EA01215B1E41EA435102E06B6910
:1031200000F08BF83961386840F0806000F096F864
:1031300004463868010105D4FFF700F9001B032895
:10314000F7D3C9E73869A969084338613046BDE853
:10315000F08100000C1002402DE9F0410646424F7C
:1031600030680C46F968002511F0030F0DD0F9689E
:1031700001F00301814231D180B3F8687168C0F376
:103180000210401C88420ED028E0012804D025D32C
:1031900003281DD018D321E03A6891071ED5FA689C
:1031A000716800F053F8386820F0805000F056F84D
:1031B00080463868810013D5FFF7C0F8A0EB0800FF
:1031C0000328F6D303252BE039684A05E7D405E048
:1031D00039688A03E3D439684A03E0D401251FE043
:1031E000B1687A69002C04D12048F36800F01EF819
:1031F00002E0336900F021F87961386840F08050CE
:1032000000F02CF804463868810005D4FFF796F8E2
:10321000001B0328F7D3D5E7786971690843786103
:103220002846BDE8F081000000700040024042EAFC
:1032300001211B0941EA434170470E4802405B08E7
:1032400042EA01215B1E41EA4361704722F07302AA
:103250001043491E40EA0110F86070473860FFF7DC
:103260006DB800009010024000100240FF80FDFF8A
:10327000FF809FFFFF80FFF92DE9F84F4FF0000915
:10328000C54AC64B4FF00F0805460E4638E0C44C01
:10329000A54214BF072406248C40C2493C4341F890
:1032A0002C40C143D2F808C0746801EA0C0CE40257
:1032B00048BF40EA0C0CC2F808C0D2F80CC07468D1
:1032C00001EA0C0CA40248BF40EA0C0CC2F80CC086
:1032D000D2F804C0746801EA0C0CA40348BF40EAA9
:1032E0000C0CC2F804C0D2F800C001EA0C0C7168E2
:1032F000C90348BF40EA0C0CC2F800C009F101093B
:10330000316831FA09F000F0A480012404FA09F4CC
:1033100014EA0100F2D04FEA490C032101FA0CF142
:103320006FEA010E7168E44301F00307012F1CBF2F
:1033300001F00301022910D1A968F7680EEA010122
:1033400007FA0CF73943A96069687768C7F3001773
:10335000214007FA09F739436960716801F00307F2
:10336000032F07D1EF6AC1F3C0013C4001FA09F114
:103370000C43EC624FEA8901347904F00304032C16
:103380001FD0EC68B7680EEA040407FA0CF73C4358
:10339000EC60347904F00304022C12D14FEAD90412
:1033A00005EB840401F01C07D4F820A008FA07FB01
:1033B0002AEA0B0AD6F810B00BFA07F747EA0A0711
:1033C00027622C680EEA0407347904F0030404FA37
:1033D0000CF444EA070CC5F800C0746814F4403FCC
:1033E0008CD0D3F800C06F4C4CF0010CC3F800C077
:1033F0004FEA990CD3F800E00EF0010ECDF800E092
:1034000001F00C01DDF800E054F82C4008FA01F757
:1034100024EA0707B5F1904F08BF002418D0624C8A
:10342000A54208BF012413D0604CA54208BF022466
:103430000ED05F4CA54208BF032409D05D4CA542C5
:1034400008BF042404D05C4CA5427FF420AF0524BF
:1034500022E7BDE8F18F2DE9F04F8A464FF0000BCF
:103460004D49504B0F22044650E04D4EB44214BF1C
:103470000726062606FA0EF6B54218D1D1F800E066
:10348000C04300EA0E0EC1F800E04D6805404D60F3
:10349000D1F80CE000EA0E0EC1F80CE08D6828406F
:1034A000886053F8280020EA090943F8289003258A
:1034B0004FEA4B00D4F8008005FA00F040EA080813
:1034C0004FEADB05C4F8008004EB850E07F01C070B
:1034D000DEF8208002FA07F728EA0707CEF8207006
:1034E000C043A7680740A7606FEA0C05D4F804E062
:1034F00005EA0E0EC4F804E0E7683840E060E06AD0
:1035000005EA000CC4F82CC00BF1010B3AFA0BF0E1
:1035100030D0012000FA0BFC1CEA0A00F4D04FEA7C
:103520009B084FEA8B0753F8285007F00C0E02FA5D
:103530000EF909EA0505B4F1904F08BF002699D0AD
:10354000194EB44208BF012694D0184EB44208BFA9
:1035500002268FD0164EB44208BF03268AD0154EDD
:10356000B44208BF042685D0134EB4427FF47DAF29
:1035700005267FE7BDE8F08F0AB18161704781625F
:1035800070470E4A136801460B421CBF116000F0E1
:1035900070BE70470000000000040140601002404F
:1035A00000180048080001400004004800080048D6
:1035B000000C0048001000480014004814040140AA
:1035C000032010B5FEF715FF0020FEF795FE00243E
:1035D000002814BF012400F04DFE204610BD00005D
:1035E00038B5044600F06CFC00EE100AB8EE400A54
:1035F00084ED000A00F002FC002584ED010A00F0D1
:1036000033FDA8B204EB80006D1C80ED020A41F28C
:10361000707000F047FEA8B20428F0DD31BD10B58F
:103620000C4C07E0201DFFF7DBFF201D00F0D2FE51
:1036300000F03AFFFFF7F6FA4FF47A7000F032FE2E
:1036400020780028EED1FFF705FB20780028FAD17A
:10365000F0E700000C0000200248016841F480718E
:1036600001607047007000402DE9F84386B01422D5
:1036700000216846FFF74DFB8D48DFF8389201685E
:103680008D4D8E4EDFF8388241F01001016048F216
:103690000414026802F0100205924FF4881705998D
:1036A000026842F004020260036803F00403059319
:1036B0000599026842F001020260036803F0010309
:1036C00005930599026842F002020260036803F064
:1036D000020305930599026842F008020260002285
:1036E000006800F0080005904FF48A71059848467C
:1036F000FFF742FF002221464FF09040FFF73CFFCA
:1037000000224FF214012846FFF736FF002241F253
:1037100081013046FFF730FF01224FF4005130465F
:10372000FFF72AFF00224FF410714046FFF724FFF5
:10373000012220212846FFF71FFF012201214846D0
:10374000FFF71AFF40F2151100F0DBF84846FFF7CB
:1037500093FD6A200090019700210291484600F0F5
:10376000BBF84FF40051009101970121029103220F
:10377000039269464046FFF77FFD00220F21282073
:10378000FEF744FE2820FEF75FFE3F2000F0A7F87A
:103790004046FFF771FD0320022100F093F80390EB
:1037A000082200F0A8F80120019000220292039262
:1037B000009400F0A1F80022029203920820022156
:1037C00000900191012200F096F810200B2100F0EA
:1037D00079F800F091F8022100F075F8E02003215B
:1037E00000900391052200F086F8012100F07EF898
:1037F000284600F071F8022000F071F82846FFF723
:103800003BFD4FF2340100F07CF82846FFF734FD11
:103810004CF6044100F06AF8304600F05DF843F2DF
:10382000810100F06EF800F054F84FF4107100F0D0
:1038300068F84046FFF720FD4FF4C07100F056F8DD
:10384000404600F049F80022029202200321009035
:1038500001900391052200F03AF8782000900221AF
:1038600000F031F803210391072200F030F8122113
:1038700000F029F84FF440700321009003910422D6
:10388000049269462846FFF7F7FC00220021172022
:10389000FEF7BCFD1720FEF7D7FD002200212820EF
:1038A000FEF7B4FD2820FEF7CFFD07B0BDE8F0839A
:1038B0004C1002400010004800040048000C004872
:1038C0000008004800900191002202927047049283
:1038D00069463046FFF7D0BC6946FFF7CDBC0B21E7
:1038E0000090019100220292694670470091019771
:1038F000002102917047049269464FF09040FFF713
:10390000BBBC009101220021029103910192694602
:1039100070470000012280B52E482F4902710160D6
:103920004FF480728261002304220262022101228C
:103930008360C16003614361C36143628262C362A9
:10394000036300F041FE18B1BDE80140FFF796B9EE
:1039500001BD10B5A8B01422002101A8FFF7D9F9C4
:103960008822002106A8FFF7D4F91C4C206870BB00
:103970004FF4803100220691269206A8FFF7D4F971
:1039800008B1FFF77BF91648416941F08071416148
:10399000416901F0807100910099026842F01002C3
:1039A00002604FF42071006800F0100000900222C5
:1039B00000980C4801910292002103910491062184
:1039C000059101A9FFF758FC2068401C206028B031
:1039D00010BD00007807002020600140D4070020BF
:1039E0004C1002400010004880B523482349016074
:1039F000022210214260C16004231722002183604B
:103A000002614161816100F085FE18B1BDE80140AD
:103A1000FFF734B901BD10B586B004461422002169
:103A200001A8FFF776F921681448814221D1144892
:103A3000416841F480714160416801F480710091F6
:103A40000099026842F0100202604FF47C41006865
:103A500000F010000090022200980A4801910292A2
:103A60000021039103220A210591049201A9FFF785
:103A700003FC06B010BD000034070020001000A0B9
:103A80004C1002400010004880B5304830490160B9
:103A90004FF482724FF44071C16042600721C162ED
:103AA00000234FF400720821836003614361826147
:103AB000C3610362436283620363416300F04AFBB4
:103AC00018B1BDE80140FFF7D9B801BD10B586B007
:103AD00004461422002101A8FFF71BF921681C48A5
:103AE000814221D11B48C16841F40041C160C168D5
:103AF00001F4004100910099026842F00402026062
:103B00004FF4E051006800F0040000900222009899
:103B1000114801910292002103910322062105918F
:103B2000049201A9FFF7A8FB06B010BD0068084980
:103B3000884209D10948026822F4004202604FF429
:103B4000E0510548FFF787BC704700007C06002065
:103B5000003C00404C100240000800485810024051
:103B600080B54248424900F00BF800B118E001BDB1
:103B700080B54048404900F003F800B110E001BDB5
:103B800001604FF4E13200230C2142608360C36086
:103B9000036141618361C3610362436200F02EBE31
:103BA000BDE80140FFF76AB810B5A8B0044614227A
:103BB00000216846FFF7ADF88822002106A8FFF72C
:103BC000A8F820682A492D4C88421FD101220021E3
:103BD0000692149106A8FFF7A7F808B1FFF74EF870
:103BE000606940F480406061606900F48040059045
:103BF0000598216841F002012160C021226802F08D
:103C000002020592022205981D4822E01A498842C4
:103C10002AD1042200210692169106A8FFF784F803
:103C200008B1FFF72BF8E06840F48020E060E0681E
:103C300000F4802005900598216841F0080121607A
:103C40004FF44071226802F00802059202220598A2
:103C50000C48009101920021029103220721049156
:103C600003926946FFF708FB28B010BD74050020D9
:103C700000380140F8050020004800404C10024088
:103C800000040048000C0048062280B5404842600D
:103C90004FF0A041022300220160C3608361C26132
:103CA0000262426282620263C26201F04FF818B19E
:103CB000BDE80140FEF7E2BF01BD10B5A8B0044663
:103CC0001422002101A8FFF724F88822002106A869
:103CD000FFF71FF82068B0F1A04F52D14FF4005108
:103CE00006914FF0806201210791089121921821DD
:103CF0000991072202210B910C910A924FF4801135
:103D00000D9106A8FFF710F808B1FEF7B7FF214C98
:103D1000206840F0010020600022216801F00101CC
:103D200000914FF40071009801910292039200F00B
:103D30002AF802210291002203924FF4E05003215D
:103D4000019004910A22059200F01DF8206840F4C9
:103D500080502060216801F4805100910098E16852
:103D6000C8000CD4E16841F08051E16000F014F823
:103D7000FEF721FBE06820F08050E06001E0FEF7F4
:103D80001AFB28B010BD01A94FF09040FFF774BA9C
:103D9000680000204C100240E06800F08050009065
:103DA000009870471FB50A4600218DF80C104FF49B
:103DB0007A7303A90091029301240146019401231F
:103DC0007E48FEF794FC9DF80C0004B010BDF8B5D9
:103DD000202100F072F885218DF80C104FF47A70D4
:103DE000012203A902900192009101232022BE2109
:103DF0007248FEF7C2FB05B000BD00002DE9F0419E
:103E00002DED028B9AB0302100F057F80446312195
:103E100000F053F80546362100F04FF806463721EA
:103E200000F04BF83A2106EB002600F046F8074672
:103E30003B2100F042F807EB0027282100F03DF875
:103E40008046292100F039F808EB00206408B6B25A
:103E500080B26D08BFB2801B2D1BBE1B00EE100A86
:103E600000EE905A01EE106A01EE904AB8EEC00AD8
:103E7000F8EEE00AB8EEC11AF8EE611A60EE200A18
:103E800031EE211A80EE818A18EE100A00F0CCFF84
:103E900000F086F84AA000F04DF9684600F04AF9B3
:103EA00042A000F047F942A000F044F91AB0B0EE89
:103EB000480ABDEC028BBDE8F081BE2072E700002D
:103EC0002DE9F8432DED028B9AB03221FFF7F5FF73
:103ED00004463321FFF7F1FF05463521FFF7EDFFDB
:103EE0003C21814609F0030044EA0024FFF7E5FF86
:103EF00007463D21FFF7E1FF80463E21FFF7DDFF4A
:103F000006463F21FFF7D9FF46EA00262B21FFF79F
:103F1000D4FF2A2147EA08278046FFF7CEFF40EA70
:103F20000820E4083FB200B2C01B00EE100A09F0FE
:103F30000C0045EA8015C4EBE50000EE900AB8EEEF
:103F4000C00AF8EEE00A36B220EE200AF71B00EEB7
:103F5000907AF8EEE00A80EE200A00EE904AF8EE41
:103F6000E00A30EE208A18EE100A00F05DFF00F043
:103F700017F800BF18A000F0DDF8684600F0DAF886
:103F80000CA000F0D7F80AA000F0D4F81AB0BDEEEB
:103F9000C80A10EE100ABDEC028B80B2BDE8F283B5
:103FA00002460B4604A1684600F062BF25000000EF
:103FB0000D0A00004300000025660000E006002016
:103FC00043757272656E742048756D6964697479A1
:103FD0002069733A2000000043757272656E742088
:103FE00054656D70657261747572652069733A20ED
:103FF00000000000F8B5024600208DF80C004FF4D8
:104000007A7103A80291012300900193BA214048DC
:10401000FEF76DFB9DF80C0005B000BD03B583B045
:104020004FF47A71019204AB02910093024601238E
:10403000BA213748FEF7A1FA05B000BD80B51A20B5
:10404000FFF7D8FF40F0010101221A20FFF7E6FF39
:104050001020FFF7CFFF00F08F00BDE8084040F0D0
:10406000320101221020D9E738B52DED028B9AB02C
:104070000024002505F1280080B2FFF7BBFF0DF8F2
:1040800005006D1C032DF5DB00201DF80010C2009B
:1040900091400C43401C0328F7DB200248BF44F04A
:1040A0007F4464204443E11204EB1154241300EED6
:1040B000104AB8EEC00ADFED120AC0EE200A9FEDEA
:1040C000111A20EE818A18EE100A00F0ADFE0246A9
:1040D0000B460DA101A800F0CBFE00BF0DA000F023
:1040E00029F801A800F026F810A000F023F807A096
:1040F00000F020F81AB0B0EE480ABDEC028B31BDDA
:104100000000C8427042213D256600000D0A0000F3
:10411000E006002043757272656E742050726573FC
:10412000737572652069733A2000000020696E483B
:104130006700000010B50446FDF70AF882B24FF0A0
:10414000FF332146024800F099FB002010BD00001B
:104150007405002038B5040001D1012032BD606A29
:1041600030B96068B0F5827F05D00021E16102E0DE
:104170000020206160610020A06204F15C05687885
:1041800020B9002129702046FFF7A0FC02206870AA
:1041900000F05FF8E168B1F5E06F04D90020B1F5F7
:1041A000706F03D104E04FF4805001D00021A16270
:1041B0006168A268237C01F4827102F40442114315
:1041C000227D03F002031943A36902F001021143A7
:1041D000227F03F40073194394F8203002F0380270
:1041E0001143A26A03F080031943236802F40052CA
:1041F00011431960A16994F8242094F83430090C13
:1042000001F0040102F010021143E26803F0080318
:10421000194302F47062114308432168486000208A
:1042200068600121697032BD10B508B9012010BD68
:1042300000F15C040221617001680A6822F040020A
:104240000A60FFF773FC002060600021617020703D
:1042500010BD2068016821F0400101607047000036
:104260004018491C1CBFB1F1010100F8012DF9D122
:10427000704770470A4881B0816841F00101816050
:10428000816801F0010100910099026842F08052BA
:104290000260006800F080500090009801B0704704
:1042A0005810024038B50446FEF748F814F1010FE3
:1042B000054602D0044801786418FEF73FF8401B19
:1042C000A042FAD331BD00BF0000002070B5064601
:1042D0002DED028B00F04FF800F042F800F051F89D
:1042E00000F043F800F038F800F0E2FD00EE100AAC
:1042F00030EE480A10EE100A00F096FD21F0004161
:1043000023E070B506462DED028B00F034F800F086
:1043100027F800F036F800F028F800F01DF800F05B
:10432000C7FD00EE100A38EE400A10EE100A00F049
:104330007BFD0022754BFDF7B5F90022744BFDF7AC
:10434000F5FA0022734BFDF77DF800F0B1FDBDECEE
:10435000028B00EE100A70BD00226F4BFDF7A2B970
:10436000044670680D4600F05FBD02460B462046CD
:104370002946FDF725B996ED008A18EE100A00F0DF
:1043800053BD02460B4600206449FDF719B90000F1
:1043900090ED060AD0ED020A30EE600A9FED561A43
:1043A000B4EE410AF1EE10FAA8BF012010DADFEDF9
:1043B000530AB4EE600AF1EE10FA48BF022007D4A7
:1043C000DFED4F0AB4EE600AF1EE10FA48BF0320A9
:1043D00080B270472DE9F0412DED028B0446FFF7C6
:1043E00090FFB0EE408A2046FFF770FF2046FFF7AF
:1043F000CFFFC5B243A700F054F800BF49A0DFF8D3
:104400002081FFF797FE00F04CF84046FFF792FE40
:1044100000F047F80026022D0DD194ED000AB5EE0C
:10442000400AF1EE10FACCBF0FF214100FF22C106C
:10443000FFF780FE012600F034F89FED330AB4EE5A
:10444000408AF1EE10FA05D508F13C00FFF772FE44
:10445000761C03E008F17000FFF76CFE00F021F815
:1044600008F1D000FFF766FE00F01BF8761C012D66
:1044700008BF08F5947009D0022D05D108F5B27077
:10448000FFF758FE761C03E008F5D470FFF752FEE4
:1044900000F007F800F005F8BDEC028B3046BDE8EF
:1044A000F0813846FFF746BE70B5044615A6304683
:1044B000FFF740FE30A01A4DFFF73CFE3046FFF7F5
:1044C00039FE2846FFF736FE3046FFF733FE200060
:1044D00008BF0FF2BC0004D0012C18BF022C02D17F
:1044E00032A0FFF727FE032C05DB05F5EE70BDE8D3
:1044F0007040FFF71FBE70BD6F12833A0AD723BC0E
:104500006E1283BA0D0A00000120CB450000044062
:1045100000408F4000F089400000144000005940E6
:10452000105200085745415448455220434F4E44CD
:104530004954494F4E205245504F525400000000FC
:1045400043415554494F4E3A2043757272656E741B
:104550006C79205261696E696E6721004341555440
:10456000494F4E3A2043757272656E746C792053D0
:104570006E6F77696E672100464C49474854205258
:1045800045434F4D4D454E444154494F4E00000068
:10459000474F20464C592120475245415420434F14
:1045A0004E445449494F4E5300000000464C59496F
:1045B0004E47204F4B2C204255542042452043412A
:1045C0005554494F5553000070B5040005D000F014
:1045D00067F8291D51F8200008B1012070BD204660
:1045E000FFF7B7F92868401C2860296801291AD10B
:1045F000DFF80011086820F0804008600A68A068B1
:1046000002430A600B6823F47F030B6020790128C2
:1046100005D10A68E068401E42EA00420A60086864
:1046200040F0004008602068016821F47141016099
:104630000368216962690B43A16913430B4303605B
:1046400003681B091B0103600668E269216A1643BF
:104650000E430660826822F45F0282608268616AAB
:10466000A36A0A435B1E42EA03428260416801F08A
:10467000070141604168E26A236B41EA022141EA95
:10468000C30141600122016841F08001016084F8AA
:10469000342000F00AF8291D41F82040002070BDA8
:1046A0002068DFF8545000F000B81249884201D168
:1046B000002070471149884201D1012070471049FC
:1046C000884201D1022070470E49884201D104205E
:1046D00070470D49884201D1052070470B49884237
:1046E00001D1062070470A49884201D1072070474E
:1046F0000320704700600140B007002020600140A7
:104700004060014080600140A0600140C060014005
:10471000E0600140F8B50446FDF710FE06460CB90E
:104720000120F2BD04F13805687838B900212970FC
:104730002046FFF770F941F28830A86033462068C0
:104740000168A26821F47061521E41EA02210160F1
:1047500000F028F801001ED122681049136866682D
:104760000B40E16843EA06630B4313600C4923687E
:104770005E68276962690E4046EA0746A1691643EA
:104780000E435E6021680A6842F001020A6000215F
:10479000696001226A7000212970F2BDEFFFFF00FD
:1047A000FEF8E0FF0022A868009020212046FFE7E5
:1047B0002DE9F041069C05460E4690461F462868A6
:1047C000816816EA010018BF0120404512D014F19B
:1047D000010FF4D0FDF7B2FDC01B844201D3002CC1
:1047E000EDD1042085F839000120E96B41F0010189
:1047F000E96300E00020BDE8F081000038B5040066
:1048000009D004F17405696809B900F01EF800F0D8
:1048100021F8012801D1012032BD606A08B100F001
:104820002AF800F00AF821F02A01FFE7816000F081
:104830001BF8BDE8324000F00ABA2068416821F454
:1048400090414160206881687047002028702046B0
:10485000FFF7AAB924216960206802685208520053
:104860000260204600F074B82068016841F0010140
:10487000016020467047204600F086B92DE9FC47CC
:10488000054605F174048846606820281746994655
:104890004DD1B8F1000F14BF002F012048D020786F
:1048A000012844D0012121700020E06021226260B3
:1048B00005F15006FDF742FD378082467780A868F3
:1048C000B0F5805F04BF286900280EBF4746404608
:1048D00000270021217080460FE018F8012B028587
:1048E00008E02868B8F1000FF7D137F8021BC1F3D0
:1048F000080101857088411E718053467088CDF88B
:104900000090002807D000228021284600F0CEF930
:104910000028E6D005E000224021284600F0C6F934
:1049200008B1032004E020206060002000E00220A5
:10493000BDE8F687286800F1080151E8001F490822
:1049400000F10803490043E8001000287047000008
:10495000F8B50446834822681368A16803402069BB
:104960000B4361690343E0690B4303431360002574
:104970005168E06821F4405101435160A3697849CE
:104980008A421CBF206A03439668774F774826F413
:10499000306633439360BA424FF40043744E32D1D1
:1049A000366806F00306032E3AD8DFE806F0026EFA
:1049B0005F800127E169B1F5004F4FF6F07640F0D6
:1049C000A6805FB1012F00F09A80022F0AD0042F39
:1049D00000F09880082F00F09880BAE0FDF71DFCE9
:1049E00000280FD061684A0802EB4002B2FBF1F0E8
:1049F000A0F11001B142F0D20640C0F342000643DC
:104A00002068C660A6E05B4FBA4221D1366816F036
:104A10000C065DD0042E38D0082E27D00C2E46D0A0
:104A200010278A42C6D137B1022F08D0042F51D0A7
:104A3000082F52D08DE0FDF7F0FB0028E2D062682D
:104A400002EB4201884202D31303834247D280E043
:104A5000494FBA420CD1366816F0300638D0102EC5
:104A600013D0202E02D0302E21D0D9E70227D8E74C
:104A7000424FBA420BD1366816F0C00628D0402EFD
:104A800003D0802EF2D0C02EEEE70427C9E73C4FBA
:104A9000BA420ED1366816F4407619D0B6F5807F4A
:104AA000F3D0B6F5007FE1D0B6F5407FB8D1082746
:104AB000B7E78A42B4D1366816F4406608D0B6F536
:104AC000806FE2D0B6F5006FD0D0B6F5406FCBE77F
:104AD0000027A6E7FDF758FBAFE71846AFE7010E42
:104AE000560816EB002069410023FCF7F9FFA0F5FA
:104AF0004071244A91422CD22168C8602AE0FDF717
:104B000094FB6DE7FDF740FB6AE718466AE747B19B
:104B1000012F16D0022F07D0042F15D0082F16D042
:104B200017E0FDF77AFBA8B1616800EB5100B0FB1C
:104B3000F1F0A0F11001B1420BD2226880B2D06036
:104B400008E0FDF772FBEEE7FDF71EFBEBE718460A
:104B5000EAE7012500206066A0662846F2BD000055
:104B600000800040F369FFEF003801400024F400AA
:104B7000881002400044004000480040004C0040C3
:104B80000050004000FD0F0090F82410CA0706D521
:104B900002685368816A23F400330B43536090F832
:104BA00024108A0706D502685368C16A23F480334B
:104BB0000B43536090F824104A0706D502685368E7
:104BC000016B23F480230B43536090F824100A07F1
:104BD00006D502685368416B23F400430B435360CE
:104BE00090F82410CA0606D502689368816B23F4F6
:104BF00080530B43936090F824108A0606D5026810
:104C00009368C16B23F400530B43936090F8241016
:104C10004A0610D502685368016C23F480130B43D5
:104C20005360036CB3F5801F05D15368416C23F4C6
:104C3000C0030B43536090F824100A0606D50168A0
:104C40004A68806C22F4002202434A607047F8B53B
:104C5000044604F174050020E8606FF07E47FDF71C
:104C60006DFB0646206801680A0708D500973346A1
:104C700000224FF40011204600F018F860B92068B7
:104C800001684A070AD50097334600224FF4800195
:104C9000204600F00BF808B10320F2BD2020686028
:104CA0002021A960002020662870F2BD2DE9F04186
:104CB000069C05460E4690461F462868C16931404D
:104CC000B1420CBF01200020404529D114F1010F51
:104CD000F3D0FDF733FBC01B844200D34CB900F086
:104CE00029F8FFF727FEFCD100F01DF80021017024
:104CF00014E0286801684A07DFD5C1690805DCD5DA
:104D00002A684FF40061116200F014F8FFF712FEF8
:104D1000FCD100F008F8C16000220270032000E01E
:104D20000020BDE8F08105F17400202141602022BF
:104D300082607047286850E8001F024621F4D07155
:104D400042E800100028F5D17047000070B504005B
:104D50008AB04BD0266804F2BC45687820B900219F
:104D600029702046FEF7A9FF03206870F16BC80583
:104D70005CBF00212161206800F0FEF883B000F0E4
:104D80004EF80EBC206800F0C7F800282CD120682F
:104D9000002100F0F7F80021242000260AE000FBA3
:104DA00001F222443C32012353701170118100231F
:104DB00000F02EF862689142F1D3002109E000FB77
:104DC00001F2224402F51F7200231170537000F0AB
:104DD0001FF862689142F2D383B000F020F80EBC55
:104DE000206800F0FBF818B10220687001200DE087
:104DF00084F8380001216970606A012804BF2046E8
:104E000000F0F2F9206800F0DDF900200AB070BD72
:104E1000491C1671D36016619361C9B27047211D98
:104E200068463422FCF7CAB9C0F3C75181B1FF29E3
:104E300006D0C110400721F0E04101F160517047F8
:104E400041020CBF40F4E0016FF0004100207047C8
:104E500000F0004100020AD0B0FA80FC00FA0CF029
:104E600001F16051A1EB0C5101EBD02140057047DD
:104E70000CB430B583B00A4606A902910446002559
:104E80000194009502AB01A9084878441E30FBF755
:104E90007BF9019A157000284EBF04460198041B47
:104EA000204603B030BC5DF80CFB00BF5BC2FFFFC7
:104EB00001F000428B1AA3F16051B1F5801F0ADBAB
:104EC000B1F17F6F1FD242EAC102C10071F100410E
:104ED00042EB507070470B15C3F10903212B10D220
:104EE000890241EA905180020128494141F0004184
:104EF00021FA03F0C3F12003994071F100415041C0
:104F00007047100070476FF0000013EB103F5CBF5C
:104F1000000E42EAC05070470FB4C16841F0400132
:104F2000C16000220092DFF8B812009A521C009271
:104F3000009A8A4213D20369002BF6D5002300930E
:104F4000026942F001020261009A521C0092009A2A
:104F50008A4204D20369DA07F6D4002200E0032271
:104F60000A990029816B0CBF41F4803121F4803112
:104F70008163104604B07047816849084900816028
:104F80000020704738B504460025E06820F0C04096
:104F90000129E0600FD1E06840F00050E06001209E
:104FA000FFF780F960696D1CC10701D4322DF6D37B
:104FB000322D11D10EE069B9E06840F08040E06028
:104FC0000120FFF76FF960696D1CC107F0D5322D24
:104FD000F6D3EDE7012032BD002032BD0EB42DE93D
:104FE000F043064604464FF000080021002004EB81
:104FF0008102491C0F29C2F80401F8D3119D06F55E
:10500000006785B9786840F002007860A06B20F4F2
:105010000010A063216841F040012160206840F049
:105020008000206003E0A06B40F40010A06306F550
:10503000606300221A600321D7F800C0C7F800C0DF
:10504000204600F0B7F81021204600F070F808B1B3
:105050004FF00108204600F08CF808B14FF001082D
:105060000020386100217961F8614FF67F334FF0FD
:10507000904C4FF0006E3246814605E000260E60EF
:10508000C1F810908B60401C079988420FD202EB48
:10509000401101F510610E68002EEFD5002806BF03
:1050A00002F51066C6F800E0C1F800C0E8E700208D
:1050B00005E000260E60C1F810908B60401C079937
:1050C00088420FD202EB401101F530610E68002ECC
:1050D000EFD5002806BF02F53066C6F800E0C1F83B
:1050E00000C0E8E7386920F4807038610021A161D0
:1050F0006FF080406061A169DFF8E80041F01001C5
:10510000A161A1690143A1610D9818B1A06940F0A6
:105110000800A061012D05D1A06940F0804040F059
:105120000400A0614046BDE8F0035DF810FB18B52F
:1051300000220092DFF8A820009B5B1C0093009BDC
:10514000934212D20469002CF6D500248901009400
:1051500041F0200101610099491C009100999142A0
:1051600003D203699906F6D401E0032012BD0020A2
:1051700012BD81B000210091DFF86410009A521C2A
:105180000092009A8A4210D20369002BF6D50023C0
:10519000009310220261009A521C0092009A8A42E7
:1051A00003D20369DA06F6D401E0032000E0002010
:1051B00001B0704700F5006002681143FFE701602D
:1051C0000020704700F5606100F500600A689208F1
:1051D00092000A60416841F002014160002070477E
:1051E000410D030000383C80016800F2F4400122C8
:1051F0000023C2600370886940F000608861486DD8
:1052000040F0805040F003004865002070470000E7
:10521000232323232323232323232323232323235E
:10522000232323232323232323232323232323234E
:10523000232323232323232323232323232323233E
:105240002323232323232323232300004C6F7720AE
:10525000436C6F7564732C2043415554494F4E3A4B
:1052600020706F7365206963696E6720616E6420CA
:105270007669736962696C697479207269736B000D
:105280004D6964204C6576656C20636C6F75647342
:105290002C2043415554494F4E3A20706F7365207E
:1052A000736C696768742074757262756C656E637F
:1052B00065207269736B000048696768204C6576E9
:1052C000656C20436C6F7564732C204E6F2053699E
:1052D000676E69666963616E74205269736B000062
:1052E000466F67677920436F6E646974696F6E7388
:1052F0002C2043415554494F4E3A20426164205678
:1053000069736962696C697479000000436C656156
:105310007220536B696573204C696B656C792C2026
:10532000476F6F64207669736962696C697479206C
:10533000746F20666C7921005072657373757265A5
:1053400020496E6372656173696E6720526170698E
:10535000646C792C205765617468657220436F6EA8
:10536000646974696F6E7320496D70726F76696ECF
:105370006700000050726573737572652044656341
:1053800072656173696E672052617069646C792C13
:105390002043415554494F4E3A2057656174686522
:1053A0007220436F6E646974696F6E7320576F72F9
:1053B00073656E696E670000507265737375726510
:1053C00020537461626C652C204E6F204368616EBF
:1053D000676520696E205765617468657220436F48
:1053E0006E646974696F6E7300000000444F204E54
:1053F0004F5420464C5920554E4C45535320494E4E
:10540000535452554D454E54205241544544204129
:105410004E4420455850455249454E4345440000AE
:10542000FEE7FEE7FEE7FEE7FEE7704770477047DE
:1054300000F034B880B52020FEF7A3F84020FEF736
:10544000A0F88020FEF79DF8BDE802404FF4807080
:10545000FEF797B880B50F4801688A0404D50E4856
:10546000016881F4804101604FF48060FEF789F8A3
:105470004FF40060FEF785F84FF40050FEF781F816
:105480004FF48040FEF77DF8BDE802404FF4004045
:10549000FEF777B81404014014040048024841683C
:1054A00002788A18426070470000002030B400255E
:1054B00012E050F8042BD30744BF4A44521E091F80
:1054C000042942F8045BFAD213468C0744BF1580C6
:1054D0009B1CC90748BF1D7050F8041B0029E8D168
:1054E00030BC7047A0860100400D0300801A060002
:1054F00000350C0040420F0080841E0000093D0072
:1055000000127A000024F40000366E010048E80121
:10551000006CDC0210B5074979441831064C7C4414
:10552000163404E00A68081D114488470146A14268
:10553000F8D110BD2C000000480000004EF6885144
:10554000CEF20001086840F470000860BFF34F8F8E
:10555000BFF36F8F4FF00170E1EE100A704700004B
:105560004DFFFFFF740700006800002000000000EE
:1055700047BBFFFFCC0100007E00000000000020C0
:105580000248016841F470010160704788ED00E055
:1055900000000000000000000102030406070809E3
:1055A00000F00DF8002801D0FFF7B4FFAFF3008042
:1055B0000020AFF30080FDF7E5FA00F002F80120CB
:1055C000704700F001B8000007463846FCF710FBB2
:1055D000FBE700000548014603B4684680F30988EC
:1055E000AFF30080FFF7AAFFFFF7DAFFA5EDF5FEA6
:1055F000014880470148004781550008D5550008FB
:105600000000000001020304FFF7FEBFFFF7FEBF2A
:10561000FFF7FEBFFFF7FEBFFFF7FEBFFFF7FEBFBE
:10562000FFF7FEBFFFF7FEBFFFF7FEBFFFF7FEBFAE
:10563000FFF7FEBFFFF7FEBFFFF7FEBFFFF7FEBF9E
:10564000FFF7FEBFFFF7FEBFFFF7FEBFFFF7FEBF8E
:10565000FFF7FEBFFFF7FEBFFFF7FEBFFFF7FEBF7E
:10566000FFF7FEBFFFF7FEBFFFF7FEBFFFF7FEBF6E
:10567000FFF7FEBFFFF7FEBFFFF7FEBFFFF7FEBF5E
:10568000FFF7FEBFFFF7FEBFFFF7FEBFFFF7FEBF4E
:10569000FFF7FEBFFFF7FEBFFFF7FEBFFFF7FEBF3E
:1056A000FFF7FEBFFFF7FEBFFFF7FEBFFFF7FEBF2E
:1056B000FFF7FEBFFFF7FEBFFFF7FEBFFFF7FEBF1E
:1056C000FFF7FEBFFFF7FEBFFFF7FEBFFFF7FEBF0E
:1056D000FFF7FEBFFFF7FEBFFFF7FEBFFFF7FEBFFE
:1056E000FFF7FEBFFFF7FEBFFFF7FEBFFFF7FEBFEE
:1056F000FFF7FEBFFFF7FEBFFFF7FEBFFFF7FEBFDE
:10570000FFF7FEBFFFF7FEBFFFF7FEBFFFF7FEBFCD
:10571000FFF7FEBFFFF7FEBFFFF7FEBFFFF7FEBFBD
:10572000FFF7FEBFFFF7FEBFFFF7FEBFFFF7FEBFAD
:10573000FFF7FEBFFFF7FEBFFFF7FEBFFFF7FEBF9D
:105740000001F9000010FD000002E0001E093D000C
:105750001E1400081E1400081E1400081E14000861
:105760001E1400081E1400081E140008F8FF0BE6A3
:0F5770001300081E1400081E140008FAFFFE00A4
:04000005080055D5C5
:00000001FF
